{
  "_format": "hh-sol-artifact-1",
  "contractName": "LendingProtocol",
  "sourceName": "contracts/Lending.sol",
  "abi": [
    {
      "inputs": [
        {
          "internalType": "uint256",
          "name": "initialSupply",
          "type": "uint256"
        }
      ],
      "stateMutability": "nonpayable",
      "type": "constructor"
    },
    {
      "anonymous": false,
      "inputs": [
        {
          "indexed": true,
          "internalType": "address",
          "name": "user",
          "type": "address"
        },
        {
          "indexed": false,
          "internalType": "uint256",
          "name": "amount",
          "type": "uint256"
        },
        {
          "indexed": false,
          "internalType": "uint256",
          "name": "_type",
          "type": "uint256"
        }
      ],
      "name": "Deposited",
      "type": "event"
    },
    {
      "anonymous": false,
      "inputs": [
        {
          "indexed": true,
          "internalType": "address",
          "name": "user",
          "type": "address"
        },
        {
          "indexed": false,
          "internalType": "uint256",
          "name": "interest",
          "type": "uint256"
        }
      ],
      "name": "InterestPaid",
      "type": "event"
    },
    {
      "anonymous": false,
      "inputs": [
        {
          "indexed": true,
          "internalType": "address",
          "name": "user",
          "type": "address"
        },
        {
          "indexed": true,
          "internalType": "address",
          "name": "_to",
          "type": "address"
        },
        {
          "indexed": false,
          "internalType": "uint256",
          "name": "interest",
          "type": "uint256"
        }
      ],
      "name": "LaunchPaid",
      "type": "event"
    },
    {
      "inputs": [],
      "name": "LOCK_DURATION",
      "outputs": [
        {
          "internalType": "uint256",
          "name": "",
          "type": "uint256"
        }
      ],
      "stateMutability": "view",
      "type": "function"
    },
    {
      "inputs": [],
      "name": "LOCK_DURATION_1",
      "outputs": [
        {
          "internalType": "uint256",
          "name": "",
          "type": "uint256"
        }
      ],
      "stateMutability": "view",
      "type": "function"
    },
    {
      "inputs": [],
      "name": "LOCK_DURATION_2",
      "outputs": [
        {
          "internalType": "uint256",
          "name": "",
          "type": "uint256"
        }
      ],
      "stateMutability": "view",
      "type": "function"
    },
    {
      "inputs": [],
      "name": "LOCK_DURATION_3",
      "outputs": [
        {
          "internalType": "uint256",
          "name": "",
          "type": "uint256"
        }
      ],
      "stateMutability": "view",
      "type": "function"
    },
    {
      "inputs": [
        {
          "internalType": "uint256",
          "name": "_index",
          "type": "uint256"
        },
        {
          "internalType": "address",
          "name": "_address",
          "type": "address"
        }
      ],
      "name": "acceptporfolios",
      "outputs": [],
      "stateMutability": "nonpayable",
      "type": "function"
    },
    {
      "inputs": [
        {
          "internalType": "uint256",
          "name": "_amount",
          "type": "uint256"
        }
      ],
      "name": "calculateInterest",
      "outputs": [
        {
          "internalType": "uint256",
          "name": "",
          "type": "uint256"
        }
      ],
      "stateMutability": "view",
      "type": "function"
    },
    {
      "inputs": [
        {
          "internalType": "uint256",
          "name": "_index",
          "type": "uint256"
        },
        {
          "internalType": "address",
          "name": "_address",
          "type": "address"
        }
      ],
      "name": "deleteporfolios",
      "outputs": [],
      "stateMutability": "nonpayable",
      "type": "function"
    },
    {
      "inputs": [
        {
          "internalType": "uint256",
          "name": "_type",
          "type": "uint256"
        }
      ],
      "name": "deposit",
      "outputs": [],
      "stateMutability": "payable",
      "type": "function"
    },
    {
      "inputs": [
        {
          "internalType": "address",
          "name": "",
          "type": "address"
        }
      ],
      "name": "deposits",
      "outputs": [
        {
          "internalType": "uint256",
          "name": "amount",
          "type": "uint256"
        },
        {
          "internalType": "uint256",
          "name": "start",
          "type": "uint256"
        },
        {
          "internalType": "uint256",
          "name": "lockTime",
          "type": "uint256"
        },
        {
          "internalType": "uint256",
          "name": "_type",
          "type": "uint256"
        },
        {
          "internalType": "uint256",
          "name": "count",
          "type": "uint256"
        },
        {
          "internalType": "bool",
          "name": "launchpad",
          "type": "bool"
        }
      ],
      "stateMutability": "view",
      "type": "function"
    },
    {
      "inputs": [
        {
          "internalType": "address",
          "name": "",
          "type": "address"
        },
        {
          "internalType": "address",
          "name": "",
          "type": "address"
        }
      ],
      "name": "fundedamount",
      "outputs": [
        {
          "internalType": "uint256",
          "name": "",
          "type": "uint256"
        }
      ],
      "stateMutability": "view",
      "type": "function"
    },
    {
      "inputs": [],
      "name": "getContractBalance",
      "outputs": [
        {
          "internalType": "uint256",
          "name": "",
          "type": "uint256"
        }
      ],
      "stateMutability": "view",
      "type": "function"
    },
    {
      "inputs": [],
      "name": "getTokenBalance",
      "outputs": [
        {
          "internalType": "uint256",
          "name": "",
          "type": "uint256"
        }
      ],
      "stateMutability": "view",
      "type": "function"
    },
    {
      "inputs": [
        {
          "internalType": "address",
          "name": "_from",
          "type": "address"
        },
        {
          "internalType": "address",
          "name": "_to",
          "type": "address"
        }
      ],
      "name": "getfundedamount",
      "outputs": [
        {
          "internalType": "uint256",
          "name": "",
          "type": "uint256"
        }
      ],
      "stateMutability": "view",
      "type": "function"
    },
    {
      "inputs": [
        {
          "internalType": "address",
          "name": "_address",
          "type": "address"
        }
      ],
      "name": "getportfolio",
      "outputs": [
        {
          "internalType": "address[]",
          "name": "",
          "type": "address[]"
        }
      ],
      "stateMutability": "view",
      "type": "function"
    },
    {
      "inputs": [],
      "name": "interestRate",
      "outputs": [
        {
          "internalType": "uint256",
          "name": "",
          "type": "uint256"
        }
      ],
      "stateMutability": "view",
      "type": "function"
    },
    {
      "inputs": [],
      "name": "interestToken",
      "outputs": [
        {
          "internalType": "contract LIXToken",
          "name": "",
          "type": "address"
        }
      ],
      "stateMutability": "view",
      "type": "function"
    },
    {
      "inputs": [
        {
          "internalType": "address",
          "name": "_project",
          "type": "address"
        },
        {
          "internalType": "address",
          "name": "_user",
          "type": "address"
        },
        {
          "internalType": "uint256",
          "name": "_amount",
          "type": "uint256"
        }
      ],
      "name": "modifyfundedamount",
      "outputs": [],
      "stateMutability": "nonpayable",
      "type": "function"
    },
    {
      "inputs": [],
      "name": "owner",
      "outputs": [
        {
          "internalType": "address",
          "name": "",
          "type": "address"
        }
      ],
      "stateMutability": "view",
      "type": "function"
    },
    {
      "inputs": [
        {
          "internalType": "uint256",
          "name": "_amount",
          "type": "uint256"
        }
      ],
      "name": "ownermint",
      "outputs": [],
      "stateMutability": "nonpayable",
      "type": "function"
    },
    {
      "inputs": [
        {
          "internalType": "address",
          "name": "beneficiary",
          "type": "address"
        }
      ],
      "name": "payInterest",
      "outputs": [],
      "stateMutability": "nonpayable",
      "type": "function"
    },
    {
      "inputs": [
        {
          "internalType": "uint256",
          "name": "",
          "type": "uint256"
        },
        {
          "internalType": "uint256",
          "name": "",
          "type": "uint256"
        }
      ],
      "name": "portfolios",
      "outputs": [
        {
          "internalType": "address",
          "name": "",
          "type": "address"
        }
      ],
      "stateMutability": "view",
      "type": "function"
    },
    {
      "inputs": [
        {
          "internalType": "uint256",
          "name": "_newRate",
          "type": "uint256"
        }
      ],
      "name": "setInterestRate",
      "outputs": [],
      "stateMutability": "nonpayable",
      "type": "function"
    },
    {
      "inputs": [],
      "name": "setLaunch",
      "outputs": [],
      "stateMutability": "nonpayable",
      "type": "function"
    },
    {
      "inputs": [
        {
          "internalType": "uint256",
          "name": "portfolios_index",
          "type": "uint256"
        }
      ],
      "name": "setPortfolio",
      "outputs": [],
      "stateMutability": "nonpayable",
      "type": "function"
    },
    {
      "inputs": [],
      "name": "withdraw",
      "outputs": [],
      "stateMutability": "nonpayable",
      "type": "function"
    }
  ],
  "bytecode": "0x6080604052600a6003553480156200001657600080fd5b5060405162004f2838038062004f2883398181016040528101906200003c91906200014a565b336000806101000a81548173ffffffffffffffffffffffffffffffffffffffff021916908373ffffffffffffffffffffffffffffffffffffffff160217905550806040516200008b90620000fc565b6200009791906200018d565b604051809103906000f080158015620000b4573d6000803e3d6000fd5b50600160006101000a81548173ffffffffffffffffffffffffffffffffffffffff021916908373ffffffffffffffffffffffffffffffffffffffff16021790555050620001aa565b611d7c80620031ac83390190565b600080fd5b6000819050919050565b62000124816200010f565b81146200013057600080fd5b50565b600081519050620001448162000119565b92915050565b6000602082840312156200016357620001626200010a565b5b6000620001738482850162000133565b91505092915050565b62000187816200010f565b82525050565b6000602082019050620001a460008301846200017c565b92915050565b612ff280620001ba6000396000f3fe6080604052600436106101665760003560e01c80636e435579116100d1578063a57475e01161008a578063d1970f1611610064578063d1970f16146104e5578063d198eb4b14610522578063e4633cf11461055f578063fc7e286d1461058857610166565b8063a57475e014610463578063b6b55f25146104a0578063d007c644146104bc57610166565b80636e435579146103615780636f9fb98a1461038c578063764b666c146103b75780637c3a00fd146103e257806382b2e2571461040d5780638da5cb5b1461043857610166565b806346a7e6f21161012357806346a7e6f214610253578063485d3834146102905780634c98d3ea146102bb5780635ac179e3146102e45780635f84f302146103215780636c83a2d41461034a57610166565b80630ab8f0321461016b578063117e2773146101965780631dbdfebe146101c157806334bec437146101ea5780633ccfd60b146102135780633e5f3a791461022a575b600080fd5b34801561017757600080fd5b506101806105ca565b60405161018d91906123d8565b60405180910390f35b3480156101a257600080fd5b506101ab6105d2565b6040516101b891906123d8565b60405180910390f35b3480156101cd57600080fd5b506101e860048036038101906101e39190612424565b6105d9565b005b3480156101f657600080fd5b50610211600480360381019061020c9190612424565b61095f565b005b34801561021f57600080fd5b50610228610a7f565b005b34801561023657600080fd5b50610251600480360381019061024c91906124af565b610c48565b005b34801561025f57600080fd5b5061027a600480360381019061027591906124ef565b610d83565b60405161028791906123d8565b60405180910390f35b34801561029c57600080fd5b506102a5610e0a565b6040516102b291906123d8565b60405180910390f35b3480156102c757600080fd5b506102e260048036038101906102dd919061252f565b610e10565b005b3480156102f057600080fd5b5061030b60048036038101906103069190612582565b610f24565b60405161031891906125d1565b60405180910390f35b34801561032d57600080fd5b5061034860048036038101906103439190612424565b610f7e565b005b34801561035657600080fd5b5061035f611016565b005b34801561036d57600080fd5b506103766110c0565b60405161038391906123d8565b60405180910390f35b34801561039857600080fd5b506103a16110c8565b6040516103ae91906123d8565b60405180910390f35b3480156103c357600080fd5b506103cc6110d0565b6040516103d9919061264b565b60405180910390f35b3480156103ee57600080fd5b506103f76110f6565b60405161040491906123d8565b60405180910390f35b34801561041957600080fd5b506104226110fc565b60405161042f91906123d8565b60405180910390f35b34801561044457600080fd5b5061044d61119f565b60405161045a91906125d1565b60405180910390f35b34801561046f57600080fd5b5061048a60048036038101906104859190612424565b6111c3565b60405161049791906123d8565b60405180910390f35b6104ba60048036038101906104b59190612424565b6111e6565b005b3480156104c857600080fd5b506104e360048036038101906104de9190612666565b6116f3565b005b3480156104f157600080fd5b5061050c60048036038101906105079190612666565b611f8b565b6040516105199190612751565b60405180910390f35b34801561052e57600080fd5b50610549600480360381019061054491906124ef565b61205b565b60405161055691906123d8565b60405180910390f35b34801561056b57600080fd5b50610586600480360381019061058191906124af565b612080565b005b34801561059457600080fd5b506105af60048036038101906105aa9190612666565b61223d565b6040516105c19695949392919061278e565b60405180910390f35b6301da9c0081565b62ed4e0081565b6000600460003373ffffffffffffffffffffffffffffffffffffffff1673ffffffffffffffffffffffffffffffffffffffff1681526020019081526020016000206040518060e001604052908160008201548152602001600182015481526020016002820154815260200160038201548152602001600482015481526020016005820160009054906101000a900460ff16151515158152602001600682018054806020026020016040519081016040528092919081815260200182805480156106f757602002820191906000526020600020905b8160009054906101000a900473ffffffffffffffffffffffffffffffffffffffff1673ffffffffffffffffffffffffffffffffffffffff16815260200190600101908083116106ad575b50505050508152505090506000816000015111610749576040517f08c379a00000000000000000000000000000000000000000000000000000000081526004016107409061284c565b60405180910390fd5b600115158160a00151151514610794576040517f08c379a000000000000000000000000000000000000000000000000000000000815260040161078b906128b8565b60405180910390fd5b600682815481106107a8576107a76128d8565b5b9060005260206000200180548060200260200160405190810160405280929190818152602001828054801561083257602002820191906000526020600020905b8160009054906101000a900473ffffffffffffffffffffffffffffffffffffffff1673ffffffffffffffffffffffffffffffffffffffff16815260200190600101908083116107e8575b50505050508160c0018190525060005b60068381548110610856576108556128d8565b5b906000526020600020018054905081101561095a5760006005600060068681548110610885576108846128d8565b5b9060005260206000200184815481106108a1576108a06128d8565b5b9060005260206000200160009054906101000a900473ffffffffffffffffffffffffffffffffffffffff1673ffffffffffffffffffffffffffffffffffffffff1673ffffffffffffffffffffffffffffffffffffffff16815260200190815260200160002060003373ffffffffffffffffffffffffffffffffffffffff1673ffffffffffffffffffffffffffffffffffffffff16815260200190815260200160002081905550808061095290612936565b915050610842565b505050565b60008054906101000a900473ffffffffffffffffffffffffffffffffffffffff1673ffffffffffffffffffffffffffffffffffffffff163373ffffffffffffffffffffffffffffffffffffffff16146109ed576040517f08c379a00000000000000000000000000000000000000000000000000000000081526004016109e4906129f0565b60405180910390fd5b600160009054906101000a900473ffffffffffffffffffffffffffffffffffffffff1673ffffffffffffffffffffffffffffffffffffffff166340c10f1930836040518363ffffffff1660e01b8152600401610a4a929190612a10565b600060405180830381600087803b158015610a6457600080fd5b505af1158015610a78573d6000803e3d6000fd5b5050505050565b6000600460003373ffffffffffffffffffffffffffffffffffffffff1673ffffffffffffffffffffffffffffffffffffffff16815260200190815260200160002090508060020154421015610b09576040517f08c379a0000000000000000000000000000000000000000000000000000000008152600401610b0090612a85565b60405180910390fd5b6000816000015411610b50576040517f08c379a0000000000000000000000000000000000000000000000000000000008152600401610b4790612af1565b60405180910390fd5b60008160000154905060003373ffffffffffffffffffffffffffffffffffffffff166108fc670de0b6b3a764000084610b899190612b11565b9081150290604051600060405180830381858888f19350505050905080610be5576040517f08c379a0000000000000000000000000000000000000000000000000000000008152600401610bdc90612b9f565b60405180910390fd5b600083600001819055503373ffffffffffffffffffffffffffffffffffffffff167f73a19dd210f1a7f902193214c0ee91dd35ee5b4d920cba8d519eca65a7b488ca838560030154604051610c3b929190612bbf565b60405180910390a2505050565b60008054906101000a900473ffffffffffffffffffffffffffffffffffffffff1673ffffffffffffffffffffffffffffffffffffffff163373ffffffffffffffffffffffffffffffffffffffff1614610cd6576040517f08c379a0000000000000000000000000000000000000000000000000000000008152600401610ccd906129f0565b60405180910390fd5b8160068054905011610d005760066001816001815401808255809150500390600052602060002050505b60068281548110610d1457610d136128d8565b5b90600052602060002001819080600181540180825580915050600190039060005260206000200160009091909190916101000a81548173ffffffffffffffffffffffffffffffffffffffff021916908373ffffffffffffffffffffffffffffffffffffffff1602179055505050565b6000600560008473ffffffffffffffffffffffffffffffffffffffff1673ffffffffffffffffffffffffffffffffffffffff16815260200190815260200160002060008373ffffffffffffffffffffffffffffffffffffffff1673ffffffffffffffffffffffffffffffffffffffff16815260200190815260200160002054905092915050565b60025481565b60008054906101000a900473ffffffffffffffffffffffffffffffffffffffff1673ffffffffffffffffffffffffffffffffffffffff163373ffffffffffffffffffffffffffffffffffffffff1614610e9e576040517f08c379a0000000000000000000000000000000000000000000000000000000008152600401610e95906129f0565b60405180910390fd5b80600560008573ffffffffffffffffffffffffffffffffffffffff1673ffffffffffffffffffffffffffffffffffffffff16815260200190815260200160002060008473ffffffffffffffffffffffffffffffffffffffff1673ffffffffffffffffffffffffffffffffffffffff16815260200190815260200160002081905550505050565b60068281548110610f3457600080fd5b906000526020600020018181548110610f4c57600080fd5b906000526020600020016000915091509054906101000a900473ffffffffffffffffffffffffffffffffffffffff1681565b60008054906101000a900473ffffffffffffffffffffffffffffffffffffffff1673ffffffffffffffffffffffffffffffffffffffff163373ffffffffffffffffffffffffffffffffffffffff161461100c576040517f08c379a0000000000000000000000000000000000000000000000000000000008152600401611003906129f0565b60405180910390fd5b8060038190555050565b6000600460003373ffffffffffffffffffffffffffffffffffffffff1673ffffffffffffffffffffffffffffffffffffffff168152602001908152602001600020905060008160000154116110a0576040517f08c379a00000000000000000000000000000000000000000000000000000000081526004016110979061284c565b60405180910390fd5b60018160050160006101000a81548160ff02191690831515021790555050565b6302c7ea0081565b600047905090565b600160009054906101000a900473ffffffffffffffffffffffffffffffffffffffff1681565b60035481565b6000600160009054906101000a900473ffffffffffffffffffffffffffffffffffffffff1673ffffffffffffffffffffffffffffffffffffffff166370a08231306040518263ffffffff1660e01b815260040161115991906125d1565b602060405180830381865afa158015611176573d6000803e3d6000fd5b505050506040513d601f19601f8201168201806040525081019061119a9190612bfd565b905090565b60008054906101000a900473ffffffffffffffffffffffffffffffffffffffff1681565b60006064600354836111d59190612b11565b6111df9190612c59565b9050919050565b60003411611229576040517f08c379a000000000000000000000000000000000000000000000000000000000815260040161122090612cfc565b60405180910390fd5b600181036113915762ed4e006002819055506040518060e00160405280670de0b6b3a76400003461125a9190612c59565b8152602001428152602001600254426112739190612d1c565b815260200182815260200160008152602001600015158152602001600067ffffffffffffffff8111156112a9576112a8612d50565b5b6040519080825280602002602001820160405280156112d75781602001602082028036833780820191505090505b50815250600460003373ffffffffffffffffffffffffffffffffffffffff1673ffffffffffffffffffffffffffffffffffffffff168152602001908152602001600020600082015181600001556020820151816001015560408201518160020155606082015181600301556080820151816004015560a08201518160050160006101000a81548160ff02191690831515021790555060c0820151816006019080519060200190611388929190612318565b509050506116a0565b600281036114fa576301da9c006002819055506040518060e00160405280670de0b6b3a7640000346113c39190612c59565b8152602001428152602001600254426113dc9190612d1c565b815260200182815260200160008152602001600015158152602001600067ffffffffffffffff81111561141257611411612d50565b5b6040519080825280602002602001820160405280156114405781602001602082028036833780820191505090505b50815250600460003373ffffffffffffffffffffffffffffffffffffffff1673ffffffffffffffffffffffffffffffffffffffff168152602001908152602001600020600082015181600001556020820151816001015560408201518160020155606082015181600301556080820151816004015560a08201518160050160006101000a81548160ff02191690831515021790555060c08201518160060190805190602001906114f1929190612318565b5090505061169f565b60038103611663576302c7ea006002819055506040518060e00160405280670de0b6b3a76400003461152c9190612c59565b8152602001428152602001600254426115459190612d1c565b815260200182815260200160008152602001600015158152602001600067ffffffffffffffff81111561157b5761157a612d50565b5b6040519080825280602002602001820160405280156115a95781602001602082028036833780820191505090505b50815250600460003373ffffffffffffffffffffffffffffffffffffffff1673ffffffffffffffffffffffffffffffffffffffff168152602001908152602001600020600082015181600001556020820151816001015560408201518160020155606082015181600301556080820151816004015560a08201518160050160006101000a81548160ff02191690831515021790555060c082015181600601908051906020019061165a929190612318565b5090505061169e565b6040517f08c379a000000000000000000000000000000000000000000000000000000000815260040161169590612dcb565b60405180910390fd5b5b5b3373ffffffffffffffffffffffffffffffffffffffff167f73a19dd210f1a7f902193214c0ee91dd35ee5b4d920cba8d519eca65a7b488ca34836040516116e8929190612bbf565b60405180910390a250565b8073ffffffffffffffffffffffffffffffffffffffff163373ffffffffffffffffffffffffffffffffffffffff1614611761576040517f08c379a000000000000000000000000000000000000000000000000000000000815260040161175890612e37565b60405180910390fd5b6000600460008373ffffffffffffffffffffffffffffffffffffffff1673ffffffffffffffffffffffffffffffffffffffff16815260200190815260200160002090506276a70081600301546117b79190612b11565b8160010154426117c79190612e57565b1015611808576040517f08c379a00000000000000000000000000000000000000000000000000000000081526004016117ff90612a85565b60405180910390fd5b600081600001541161184f576040517f08c379a00000000000000000000000000000000000000000000000000000000081526004016118469061284c565b60405180910390fd5b600062278d0090506000428360020154111561187d57826003015460066118769190612b11565b905061189b565b8183600101544261188e9190612e57565b6118989190612c59565b90505b60006118aa84600001546111c3565b8460040154836118ba9190612e57565b6118c49190612b11565b9050818460040181905550600160009054906101000a900473ffffffffffffffffffffffffffffffffffffffff1673ffffffffffffffffffffffffffffffffffffffff166370a08231306040518263ffffffff1660e01b815260040161192a91906125d1565b602060405180830381865afa158015611947573d6000803e3d6000fd5b505050506040513d601f19601f8201168201806040525081019061196b9190612bfd565b811115611a2257611a21600160009054906101000a900473ffffffffffffffffffffffffffffffffffffffff1673ffffffffffffffffffffffffffffffffffffffff166370a08231306040518263ffffffff1660e01b81526004016119d091906125d1565b602060405180830381865afa1580156119ed573d6000803e3d6000fd5b505050506040513d601f19601f82011682018060405250810190611a119190612bfd565b82611a1c9190612e57565b612286565b5b600115158460050160009054906101000a900460ff16151503611e565760005b8460060180549050811015611e5057600073ffffffffffffffffffffffffffffffffffffffff16856006018281548110611a7f57611a7e6128d8565b5b9060005260206000200160009054906101000a900473ffffffffffffffffffffffffffffffffffffffff1673ffffffffffffffffffffffffffffffffffffffff1603611b00576040517f08c379a0000000000000000000000000000000000000000000000000000000008152600401611af790612ed7565b60405180910390fd5b3373ffffffffffffffffffffffffffffffffffffffff16856006018281548110611b2d57611b2c6128d8565b5b9060005260206000200160009054906101000a900473ffffffffffffffffffffffffffffffffffffffff1673ffffffffffffffffffffffffffffffffffffffff1603611bae576040517f08c379a0000000000000000000000000000000000000000000000000000000008152600401611ba590612e37565b60405180910390fd5b600160009054906101000a900473ffffffffffffffffffffffffffffffffffffffff1673ffffffffffffffffffffffffffffffffffffffff1663a9059cbb866006018381548110611c0257611c016128d8565b5b9060005260206000200160009054906101000a900473ffffffffffffffffffffffffffffffffffffffff16876006018054905085611c409190612c59565b6040518363ffffffff1660e01b8152600401611c5d929190612a10565b6020604051808303816000875af1158015611c7c573d6000803e3d6000fd5b505050506040513d601f19601f82011682018060405250810190611ca09190612f23565b50846006018054905082611cb49190612c59565b60056000876006018481548110611cce57611ccd6128d8565b5b9060005260206000200160009054906101000a900473ffffffffffffffffffffffffffffffffffffffff1673ffffffffffffffffffffffffffffffffffffffff1673ffffffffffffffffffffffffffffffffffffffff16815260200190815260200160002060003373ffffffffffffffffffffffffffffffffffffffff1673ffffffffffffffffffffffffffffffffffffffff1681526020019081526020016000206000828254611d7f9190612d1c565b92505081905550846006018181548110611d9c57611d9b6128d8565b5b9060005260206000200160009054906101000a900473ffffffffffffffffffffffffffffffffffffffff1673ffffffffffffffffffffffffffffffffffffffff168673ffffffffffffffffffffffffffffffffffffffff167f189c082c5d701631ce731739c1bdee3ae2718229a028512752215f7e85503d98876006018054905085611e289190612c59565b604051611e3591906123d8565b60405180910390a38080611e4890612936565b915050611a42565b50611f84565b600160009054906101000a900473ffffffffffffffffffffffffffffffffffffffff1673ffffffffffffffffffffffffffffffffffffffff1663a9059cbb86836040518363ffffffff1660e01b8152600401611eb3929190612a10565b6020604051808303816000875af1158015611ed2573d6000803e3d6000fd5b505050506040513d601f19601f82011682018060405250810190611ef69190612f23565b611f35576040517f08c379a0000000000000000000000000000000000000000000000000000000008152600401611f2c90612f9c565b60405180910390fd5b8473ffffffffffffffffffffffffffffffffffffffff167f16cbc685358ca7d4e6b273dcdf2cb5d18c80b950aa2319b519756cd016233a6c82604051611f7b91906123d8565b60405180910390a25b5050505050565b6060600460008373ffffffffffffffffffffffffffffffffffffffff1673ffffffffffffffffffffffffffffffffffffffff16815260200190815260200160002060060180548060200260200160405190810160405280929190818152602001828054801561204f57602002820191906000526020600020905b8160009054906101000a900473ffffffffffffffffffffffffffffffffffffffff1673ffffffffffffffffffffffffffffffffffffffff1681526020019060010190808311612005575b50505050509050919050565b6005602052816000526040600020602052806000526040600020600091509150505481565b60008054906101000a900473ffffffffffffffffffffffffffffffffffffffff1673ffffffffffffffffffffffffffffffffffffffff163373ffffffffffffffffffffffffffffffffffffffff161461210e576040517f08c379a0000000000000000000000000000000000000000000000000000000008152600401612105906129f0565b60405180910390fd5b60005b60068381548110612125576121246128d8565b5b9060005260206000200180549050811015612238578173ffffffffffffffffffffffffffffffffffffffff1660068481548110612165576121646128d8565b5b906000526020600020018281548110612181576121806128d8565b5b9060005260206000200160009054906101000a900473ffffffffffffffffffffffffffffffffffffffff1673ffffffffffffffffffffffffffffffffffffffff160361222557600683815481106121db576121da6128d8565b5b9060005260206000200181815481106121f7576121f66128d8565b5b9060005260206000200160006101000a81549073ffffffffffffffffffffffffffffffffffffffff02191690555b808061223090612936565b915050612111565b505050565b60046020528060005260406000206000915090508060000154908060010154908060020154908060030154908060040154908060050160009054906101000a900460ff16905086565b600160009054906101000a900473ffffffffffffffffffffffffffffffffffffffff1673ffffffffffffffffffffffffffffffffffffffff166340c10f1930836040518363ffffffff1660e01b81526004016122e3929190612a10565b600060405180830381600087803b1580156122fd57600080fd5b505af1158015612311573d6000803e3d6000fd5b5050505050565b828054828255906000526020600020908101928215612391579160200282015b828111156123905782518260006101000a81548173ffffffffffffffffffffffffffffffffffffffff021916908373ffffffffffffffffffffffffffffffffffffffff16021790555091602001919060010190612338565b5b50905061239e91906123a2565b5090565b5b808211156123bb5760008160009055506001016123a3565b5090565b6000819050919050565b6123d2816123bf565b82525050565b60006020820190506123ed60008301846123c9565b92915050565b600080fd5b612401816123bf565b811461240c57600080fd5b50565b60008135905061241e816123f8565b92915050565b60006020828403121561243a576124396123f3565b5b60006124488482850161240f565b91505092915050565b600073ffffffffffffffffffffffffffffffffffffffff82169050919050565b600061247c82612451565b9050919050565b61248c81612471565b811461249757600080fd5b50565b6000813590506124a981612483565b92915050565b600080604083850312156124c6576124c56123f3565b5b60006124d48582860161240f565b92505060206124e58582860161249a565b9150509250929050565b60008060408385031215612506576125056123f3565b5b60006125148582860161249a565b92505060206125258582860161249a565b9150509250929050565b600080600060608486031215612548576125476123f3565b5b60006125568682870161249a565b93505060206125678682870161249a565b92505060406125788682870161240f565b9150509250925092565b60008060408385031215612599576125986123f3565b5b60006125a78582860161240f565b92505060206125b88582860161240f565b9150509250929050565b6125cb81612471565b82525050565b60006020820190506125e660008301846125c2565b92915050565b6000819050919050565b600061261161260c61260784612451565b6125ec565b612451565b9050919050565b6000612623826125f6565b9050919050565b600061263582612618565b9050919050565b6126458161262a565b82525050565b6000602082019050612660600083018461263c565b92915050565b60006020828403121561267c5761267b6123f3565b5b600061268a8482850161249a565b91505092915050565b600081519050919050565b600082825260208201905092915050565b6000819050602082019050919050565b6126c881612471565b82525050565b60006126da83836126bf565b60208301905092915050565b6000602082019050919050565b60006126fe82612693565b612708818561269e565b9350612713836126af565b8060005b8381101561274457815161272b88826126ce565b9750612736836126e6565b925050600181019050612717565b5085935050505092915050565b6000602082019050818103600083015261276b81846126f3565b905092915050565b60008115159050919050565b61278881612773565b82525050565b600060c0820190506127a360008301896123c9565b6127b060208301886123c9565b6127bd60408301876123c9565b6127ca60608301866123c9565b6127d760808301856123c9565b6127e460a083018461277f565b979650505050505050565b600082825260208201905092915050565b7f4e6f206465706f73697420746f2070617920696e746572657374206f6e000000600082015250565b6000612836601d836127ef565b915061284182612800565b602082019050919050565b6000602082019050818103600083015261286581612829565b9050919050565b7f4e6f74206c61756e636870616420757365720000000000000000000000000000600082015250565b60006128a26012836127ef565b91506128ad8261286c565b602082019050919050565b600060208201905081810360008301526128d181612895565b9050919050565b7f4e487b7100000000000000000000000000000000000000000000000000000000600052603260045260246000fd5b7f4e487b7100000000000000000000000000000000000000000000000000000000600052601160045260246000fd5b6000612941826123bf565b91507fffffffffffffffffffffffffffffffffffffffffffffffffffffffffffffffff820361297357612972612907565b5b600182019050919050565b7f4f6e6c79206f776e65722063616e2063616c6c20746869732066756e6374696f60008201527f6e2e000000000000000000000000000000000000000000000000000000000000602082015250565b60006129da6022836127ef565b91506129e58261297e565b604082019050919050565b60006020820190508181036000830152612a09816129cd565b9050919050565b6000604082019050612a2560008301856125c2565b612a3260208301846123c9565b9392505050565b7f4465706f736974206973207374696c6c206c6f636b6564000000000000000000600082015250565b6000612a6f6017836127ef565b9150612a7a82612a39565b602082019050919050565b60006020820190508181036000830152612a9e81612a62565b9050919050565b7f4e6f2066756e647320746f207769746864726177000000000000000000000000600082015250565b6000612adb6014836127ef565b9150612ae682612aa5565b602082019050919050565b60006020820190508181036000830152612b0a81612ace565b9050919050565b6000612b1c826123bf565b9150612b27836123bf565b9250828202612b35816123bf565b91508282048414831517612b4c57612b4b612907565b5b5092915050565b7f4661696c656420746f2073656e64204b4c415900000000000000000000000000600082015250565b6000612b896013836127ef565b9150612b9482612b53565b602082019050919050565b60006020820190508181036000830152612bb881612b7c565b9050919050565b6000604082019050612bd460008301856123c9565b612be160208301846123c9565b9392505050565b600081519050612bf7816123f8565b92915050565b600060208284031215612c1357612c126123f3565b5b6000612c2184828501612be8565b91505092915050565b7f4e487b7100000000000000000000000000000000000000000000000000000000600052601260045260246000fd5b6000612c64826123bf565b9150612c6f836123bf565b925082612c7f57612c7e612c2a565b5b828204905092915050565b7f4465706f7369742076616c7565206d757374206265206772656174657220746860008201527f616e203000000000000000000000000000000000000000000000000000000000602082015250565b6000612ce66024836127ef565b9150612cf182612c8a565b604082019050919050565b60006020820190508181036000830152612d1581612cd9565b9050919050565b6000612d27826123bf565b9150612d32836123bf565b9250828201905080821115612d4a57612d49612907565b5b92915050565b7f4e487b7100000000000000000000000000000000000000000000000000000000600052604160045260246000fd5b7f496e76616c696420747970650000000000000000000000000000000000000000600082015250565b6000612db5600c836127ef565b9150612dc082612d7f565b602082019050919050565b60006020820190508181036000830152612de481612da8565b9050919050565b7f53656c662d67657420696e7465726573742e0000000000000000000000000000600082015250565b6000612e216012836127ef565b9150612e2c82612deb565b602082019050919050565b60006020820190508181036000830152612e5081612e14565b9050919050565b6000612e62826123bf565b9150612e6d836123bf565b9250828203905081811115612e8557612e84612907565b5b92915050565b7f496e76616c696420616464726573730000000000000000000000000000000000600082015250565b6000612ec1600f836127ef565b9150612ecc82612e8b565b602082019050919050565b60006020820190508181036000830152612ef081612eb4565b9050919050565b612f0081612773565b8114612f0b57600080fd5b50565b600081519050612f1d81612ef7565b92915050565b600060208284031215612f3957612f386123f3565b5b6000612f4784828501612f0e565b91505092915050565b7f496e746572657374207061796d656e74206661696c6564000000000000000000600082015250565b6000612f866017836127ef565b9150612f9182612f50565b602082019050919050565b60006020820190508181036000830152612fb581612f79565b905091905056fea2646970667358221220a79ea2d1c7ed2d18bc7597fdc41b6a358125b3dec34f6b1f2108d29e095d922d64736f6c6343000814003360806040523480156200001157600080fd5b5060405162001d7c38038062001d7c8339818101604052810190620000379190620002e5565b6040518060400160405280600581526020017f48454c49580000000000000000000000000000000000000000000000000000008152506040518060400160405280600381526020017f4c495800000000000000000000000000000000000000000000000000000000008152508160039081620000b4919062000587565b508060049081620000c6919062000587565b505050620000db33826200012360201b60201c565b33600560006101000a81548173ffffffffffffffffffffffffffffffffffffffff021916908373ffffffffffffffffffffffffffffffffffffffff1602179055505062000789565b600073ffffffffffffffffffffffffffffffffffffffff168273ffffffffffffffffffffffffffffffffffffffff160362000195576040517f08c379a00000000000000000000000000000000000000000000000000000000081526004016200018c90620006cf565b60405180910390fd5b620001a9600083836200029b60201b60201c565b8060026000828254620001bd919062000720565b92505081905550806000808473ffffffffffffffffffffffffffffffffffffffff1673ffffffffffffffffffffffffffffffffffffffff168152602001908152602001600020600082825462000214919062000720565b925050819055508173ffffffffffffffffffffffffffffffffffffffff16600073ffffffffffffffffffffffffffffffffffffffff167fddf252ad1be2c89b69c2b068fc378daa952ba7f163c4a11628f55a4df523b3ef836040516200027b91906200076c565b60405180910390a36200029760008383620002a060201b60201c565b5050565b505050565b505050565b600080fd5b6000819050919050565b620002bf81620002aa565b8114620002cb57600080fd5b50565b600081519050620002df81620002b4565b92915050565b600060208284031215620002fe57620002fd620002a5565b5b60006200030e84828501620002ce565b91505092915050565b600081519050919050565b7f4e487b7100000000000000000000000000000000000000000000000000000000600052604160045260246000fd5b7f4e487b7100000000000000000000000000000000000000000000000000000000600052602260045260246000fd5b600060028204905060018216806200039957607f821691505b602082108103620003af57620003ae62000351565b5b50919050565b60008190508160005260206000209050919050565b60006020601f8301049050919050565b600082821b905092915050565b600060088302620004197fffffffffffffffffffffffffffffffffffffffffffffffffffffffffffffffff82620003da565b620004258683620003da565b95508019841693508086168417925050509392505050565b6000819050919050565b600062000468620004626200045c84620002aa565b6200043d565b620002aa565b9050919050565b6000819050919050565b620004848362000447565b6200049c62000493826200046f565b848454620003e7565b825550505050565b600090565b620004b3620004a4565b620004c081848462000479565b505050565b5b81811015620004e857620004dc600082620004a9565b600181019050620004c6565b5050565b601f82111562000537576200050181620003b5565b6200050c84620003ca565b810160208510156200051c578190505b620005346200052b85620003ca565b830182620004c5565b50505b505050565b600082821c905092915050565b60006200055c600019846008026200053c565b1980831691505092915050565b600062000577838362000549565b9150826002028217905092915050565b620005928262000317565b67ffffffffffffffff811115620005ae57620005ad62000322565b5b620005ba825462000380565b620005c7828285620004ec565b600060209050601f831160018114620005ff5760008415620005ea578287015190505b620005f6858262000569565b86555062000666565b601f1984166200060f86620003b5565b60005b82811015620006395784890151825560018201915060208501945060208101905062000612565b8683101562000659578489015162000655601f89168262000549565b8355505b6001600288020188555050505b505050505050565b600082825260208201905092915050565b7f45524332303a206d696e7420746f20746865207a65726f206164647265737300600082015250565b6000620006b7601f836200066e565b9150620006c4826200067f565b602082019050919050565b60006020820190508181036000830152620006ea81620006a8565b9050919050565b7f4e487b7100000000000000000000000000000000000000000000000000000000600052601160045260246000fd5b60006200072d82620002aa565b91506200073a83620002aa565b9250828201905080821115620007555762000754620006f1565b5b92915050565b6200076681620002aa565b82525050565b60006020820190506200078360008301846200075b565b92915050565b6115e380620007996000396000f3fe608060405234801561001057600080fd5b50600436106100cf5760003560e01c806340c10f191161008c57806395d89b411161006657806395d89b4114610228578063a457c2d714610246578063a9059cbb14610276578063dd62ed3e146102a6576100cf565b806340c10f19146101be578063469ffcbc146101da57806370a08231146101f8576100cf565b806306fdde03146100d4578063095ea7b3146100f257806318160ddd1461012257806323b872dd14610140578063313ce56714610170578063395093511461018e575b600080fd5b6100dc6102d6565b6040516100e99190610d98565b60405180910390f35b61010c60048036038101906101079190610e53565b610368565b6040516101199190610eae565b60405180910390f35b61012a61038b565b6040516101379190610ed8565b60405180910390f35b61015a60048036038101906101559190610ef3565b610395565b6040516101679190610eae565b60405180910390f35b6101786103c4565b6040516101859190610f62565b60405180910390f35b6101a860048036038101906101a39190610e53565b6103cd565b6040516101b59190610eae565b60405180910390f35b6101d860048036038101906101d39190610e53565b610404565b005b6101e26104a2565b6040516101ef9190610f8c565b60405180910390f35b610212600480360381019061020d9190610fa7565b6104c8565b60405161021f9190610ed8565b60405180910390f35b610230610510565b60405161023d9190610d98565b60405180910390f35b610260600480360381019061025b9190610e53565b6105a2565b60405161026d9190610eae565b60405180910390f35b610290600480360381019061028b9190610e53565b610619565b60405161029d9190610eae565b60405180910390f35b6102c060048036038101906102bb9190610fd4565b61063c565b6040516102cd9190610ed8565b60405180910390f35b6060600380546102e590611043565b80601f016020809104026020016040519081016040528092919081815260200182805461031190611043565b801561035e5780601f106103335761010080835404028352916020019161035e565b820191906000526020600020905b81548152906001019060200180831161034157829003601f168201915b5050505050905090565b6000806103736106c3565b90506103808185856106cb565b600191505092915050565b6000600254905090565b6000806103a06106c3565b90506103ad858285610894565b6103b8858585610920565b60019150509392505050565b60006012905090565b6000806103d86106c3565b90506103f98185856103ea858961063c565b6103f491906110a3565b6106cb565b600191505092915050565b600560009054906101000a900473ffffffffffffffffffffffffffffffffffffffff1673ffffffffffffffffffffffffffffffffffffffff163373ffffffffffffffffffffffffffffffffffffffff1614610494576040517f08c379a000000000000000000000000000000000000000000000000000000000815260040161048b90611149565b60405180910390fd5b61049e8282610b9f565b5050565b600560009054906101000a900473ffffffffffffffffffffffffffffffffffffffff1681565b60008060008373ffffffffffffffffffffffffffffffffffffffff1673ffffffffffffffffffffffffffffffffffffffff168152602001908152602001600020549050919050565b60606004805461051f90611043565b80601f016020809104026020016040519081016040528092919081815260200182805461054b90611043565b80156105985780601f1061056d57610100808354040283529160200191610598565b820191906000526020600020905b81548152906001019060200180831161057b57829003601f168201915b5050505050905090565b6000806105ad6106c3565b905060006105bb828661063c565b905083811015610600576040517f08c379a00000000000000000000000000000000000000000000000000000000081526004016105f7906111db565b60405180910390fd5b61060d82868684036106cb565b60019250505092915050565b6000806106246106c3565b9050610631818585610920565b600191505092915050565b6000600160008473ffffffffffffffffffffffffffffffffffffffff1673ffffffffffffffffffffffffffffffffffffffff16815260200190815260200160002060008373ffffffffffffffffffffffffffffffffffffffff1673ffffffffffffffffffffffffffffffffffffffff16815260200190815260200160002054905092915050565b600033905090565b600073ffffffffffffffffffffffffffffffffffffffff168373ffffffffffffffffffffffffffffffffffffffff160361073a576040517f08c379a00000000000000000000000000000000000000000000000000000000081526004016107319061126d565b60405180910390fd5b600073ffffffffffffffffffffffffffffffffffffffff168273ffffffffffffffffffffffffffffffffffffffff16036107a9576040517f08c379a00000000000000000000000000000000000000000000000000000000081526004016107a0906112ff565b60405180910390fd5b80600160008573ffffffffffffffffffffffffffffffffffffffff1673ffffffffffffffffffffffffffffffffffffffff16815260200190815260200160002060008473ffffffffffffffffffffffffffffffffffffffff1673ffffffffffffffffffffffffffffffffffffffff168152602001908152602001600020819055508173ffffffffffffffffffffffffffffffffffffffff168373ffffffffffffffffffffffffffffffffffffffff167f8c5be1e5ebec7d5bd14f71427d1e84f3dd0314c0f7b2291e5b200ac8c7c3b925836040516108879190610ed8565b60405180910390a3505050565b60006108a0848461063c565b90507fffffffffffffffffffffffffffffffffffffffffffffffffffffffffffffffff811461091a578181101561090c576040517f08c379a00000000000000000000000000000000000000000000000000000000081526004016109039061136b565b60405180910390fd5b61091984848484036106cb565b5b50505050565b600073ffffffffffffffffffffffffffffffffffffffff168373ffffffffffffffffffffffffffffffffffffffff160361098f576040517f08c379a0000000000000000000000000000000000000000000000000000000008152600401610986906113fd565b60405180910390fd5b600073ffffffffffffffffffffffffffffffffffffffff168273ffffffffffffffffffffffffffffffffffffffff16036109fe576040517f08c379a00000000000000000000000000000000000000000000000000000000081526004016109f59061148f565b60405180910390fd5b610a09838383610cfe565b60008060008573ffffffffffffffffffffffffffffffffffffffff1673ffffffffffffffffffffffffffffffffffffffff16815260200190815260200160002054905081811015610a8f576040517f08c379a0000000000000000000000000000000000000000000000000000000008152600401610a8690611521565b60405180910390fd5b8181036000808673ffffffffffffffffffffffffffffffffffffffff1673ffffffffffffffffffffffffffffffffffffffff16815260200190815260200160002081905550816000808573ffffffffffffffffffffffffffffffffffffffff1673ffffffffffffffffffffffffffffffffffffffff1681526020019081526020016000206000828254610b2291906110a3565b925050819055508273ffffffffffffffffffffffffffffffffffffffff168473ffffffffffffffffffffffffffffffffffffffff167fddf252ad1be2c89b69c2b068fc378daa952ba7f163c4a11628f55a4df523b3ef84604051610b869190610ed8565b60405180910390a3610b99848484610d03565b50505050565b600073ffffffffffffffffffffffffffffffffffffffff168273ffffffffffffffffffffffffffffffffffffffff1603610c0e576040517f08c379a0000000000000000000000000000000000000000000000000000000008152600401610c059061158d565b60405180910390fd5b610c1a60008383610cfe565b8060026000828254610c2c91906110a3565b92505081905550806000808473ffffffffffffffffffffffffffffffffffffffff1673ffffffffffffffffffffffffffffffffffffffff1681526020019081526020016000206000828254610c8191906110a3565b925050819055508173ffffffffffffffffffffffffffffffffffffffff16600073ffffffffffffffffffffffffffffffffffffffff167fddf252ad1be2c89b69c2b068fc378daa952ba7f163c4a11628f55a4df523b3ef83604051610ce69190610ed8565b60405180910390a3610cfa60008383610d03565b5050565b505050565b505050565b600081519050919050565b600082825260208201905092915050565b60005b83811015610d42578082015181840152602081019050610d27565b60008484015250505050565b6000601f19601f8301169050919050565b6000610d6a82610d08565b610d748185610d13565b9350610d84818560208601610d24565b610d8d81610d4e565b840191505092915050565b60006020820190508181036000830152610db28184610d5f565b905092915050565b600080fd5b600073ffffffffffffffffffffffffffffffffffffffff82169050919050565b6000610dea82610dbf565b9050919050565b610dfa81610ddf565b8114610e0557600080fd5b50565b600081359050610e1781610df1565b92915050565b6000819050919050565b610e3081610e1d565b8114610e3b57600080fd5b50565b600081359050610e4d81610e27565b92915050565b60008060408385031215610e6a57610e69610dba565b5b6000610e7885828601610e08565b9250506020610e8985828601610e3e565b9150509250929050565b60008115159050919050565b610ea881610e93565b82525050565b6000602082019050610ec36000830184610e9f565b92915050565b610ed281610e1d565b82525050565b6000602082019050610eed6000830184610ec9565b92915050565b600080600060608486031215610f0c57610f0b610dba565b5b6000610f1a86828701610e08565b9350506020610f2b86828701610e08565b9250506040610f3c86828701610e3e565b9150509250925092565b600060ff82169050919050565b610f5c81610f46565b82525050565b6000602082019050610f776000830184610f53565b92915050565b610f8681610ddf565b82525050565b6000602082019050610fa16000830184610f7d565b92915050565b600060208284031215610fbd57610fbc610dba565b5b6000610fcb84828501610e08565b91505092915050565b60008060408385031215610feb57610fea610dba565b5b6000610ff985828601610e08565b925050602061100a85828601610e08565b9150509250929050565b7f4e487b7100000000000000000000000000000000000000000000000000000000600052602260045260246000fd5b6000600282049050600182168061105b57607f821691505b60208210810361106e5761106d611014565b5b50919050565b7f4e487b7100000000000000000000000000000000000000000000000000000000600052601160045260246000fd5b60006110ae82610e1d565b91506110b983610e1d565b92508282019050808211156110d1576110d0611074565b5b92915050565b7f4f6e6c79206f776e65722063616e2063616c6c20746869732066756e6374696f60008201527f6e2e000000000000000000000000000000000000000000000000000000000000602082015250565b6000611133602283610d13565b915061113e826110d7565b604082019050919050565b6000602082019050818103600083015261116281611126565b9050919050565b7f45524332303a2064656372656173656420616c6c6f77616e63652062656c6f7760008201527f207a65726f000000000000000000000000000000000000000000000000000000602082015250565b60006111c5602583610d13565b91506111d082611169565b604082019050919050565b600060208201905081810360008301526111f4816111b8565b9050919050565b7f45524332303a20617070726f76652066726f6d20746865207a65726f2061646460008201527f7265737300000000000000000000000000000000000000000000000000000000602082015250565b6000611257602483610d13565b9150611262826111fb565b604082019050919050565b600060208201905081810360008301526112868161124a565b9050919050565b7f45524332303a20617070726f766520746f20746865207a65726f20616464726560008201527f7373000000000000000000000000000000000000000000000000000000000000602082015250565b60006112e9602283610d13565b91506112f48261128d565b604082019050919050565b60006020820190508181036000830152611318816112dc565b9050919050565b7f45524332303a20696e73756666696369656e7420616c6c6f77616e6365000000600082015250565b6000611355601d83610d13565b91506113608261131f565b602082019050919050565b6000602082019050818103600083015261138481611348565b9050919050565b7f45524332303a207472616e736665722066726f6d20746865207a65726f20616460008201527f6472657373000000000000000000000000000000000000000000000000000000602082015250565b60006113e7602583610d13565b91506113f28261138b565b604082019050919050565b60006020820190508181036000830152611416816113da565b9050919050565b7f45524332303a207472616e7366657220746f20746865207a65726f206164647260008201527f6573730000000000000000000000000000000000000000000000000000000000602082015250565b6000611479602383610d13565b91506114848261141d565b604082019050919050565b600060208201905081810360008301526114a88161146c565b9050919050565b7f45524332303a207472616e7366657220616d6f756e742065786365656473206260008201527f616c616e63650000000000000000000000000000000000000000000000000000602082015250565b600061150b602683610d13565b9150611516826114af565b604082019050919050565b6000602082019050818103600083015261153a816114fe565b9050919050565b7f45524332303a206d696e7420746f20746865207a65726f206164647265737300600082015250565b6000611577601f83610d13565b915061158282611541565b602082019050919050565b600060208201905081810360008301526115a68161156a565b905091905056fea264697066735822122006668801293757eb7312a7b825fbed06a614cb76fee3b3b01e8aaa810458081564736f6c63430008140033",
  "linkReferences": {},
  "deployedLinkReferences": {}
}