{
	"contracts/home.sol": {
		"Home": {
			"abi": [
				{
					"inputs": [],
					"stateMutability": "payable",
					"type": "constructor"
				},
				{
					"inputs": [],
					"name": "create_game",
					"outputs": [
						{
							"internalType": "address",
							"name": "",
							"type": "address"
						}
					],
					"stateMutability": "payable",
					"type": "function"
				},
				{
					"inputs": [
						{
							"internalType": "address",
							"name": "_room",
							"type": "address"
						}
					],
					"name": "deposit",
					"outputs": [],
					"stateMutability": "nonpayable",
					"type": "function"
				},
				{
					"inputs": [
						{
							"internalType": "address",
							"name": "_room",
							"type": "address"
						},
						{
							"internalType": "address",
							"name": "_winner",
							"type": "address"
						}
					],
					"name": "end_game",
					"outputs": [],
					"stateMutability": "nonpayable",
					"type": "function"
				},
				{
					"inputs": [],
					"name": "get_balance",
					"outputs": [
						{
							"internalType": "uint256",
							"name": "",
							"type": "uint256"
						}
					],
					"stateMutability": "view",
					"type": "function"
				},
				{
					"inputs": [
						{
							"internalType": "address",
							"name": "_room",
							"type": "address"
						}
					],
					"name": "join_game",
					"outputs": [],
					"stateMutability": "payable",
					"type": "function"
				},
				{
					"inputs": [],
					"name": "owner",
					"outputs": [
						{
							"internalType": "address",
							"name": "",
							"type": "address"
						}
					],
					"stateMutability": "view",
					"type": "function"
				},
				{
					"inputs": [
						{
							"internalType": "uint256",
							"name": "",
							"type": "uint256"
						}
					],
					"name": "room_",
					"outputs": [
						{
							"internalType": "address",
							"name": "",
							"type": "address"
						}
					],
					"stateMutability": "view",
					"type": "function"
				},
				{
					"inputs": [
						{
							"internalType": "contract Room",
							"name": "",
							"type": "address"
						},
						{
							"internalType": "uint256",
							"name": "",
							"type": "uint256"
						}
					],
					"name": "rooms",
					"outputs": [
						{
							"internalType": "address",
							"name": "",
							"type": "address"
						}
					],
					"stateMutability": "view",
					"type": "function"
				},
				{
					"inputs": [],
					"name": "success",
					"outputs": [
						{
							"internalType": "bool",
							"name": "",
							"type": "bool"
						}
					],
					"stateMutability": "view",
					"type": "function"
				}
			],
			"devdoc": {
				"kind": "dev",
				"methods": {},
				"version": 1
			},
			"evm": {
				"assembly": "    /* \"contracts/home.sol\":119:1770  contract Home {... */\n  mstore(0x40, 0x80)\n    /* \"contracts/home.sol\":311:321  msg.sender */\n  caller\n    /* \"contracts/home.sol\":303:308  owner */\n  0x00\n  dup1\n    /* \"contracts/home.sol\":303:321  owner = msg.sender */\n  0x0100\n  exp\n  dup2\n  sload\n  dup2\n  0xffffffffffffffffffffffffffffffffffffffff\n  mul\n  not\n  and\n  swap1\n  dup4\n  0xffffffffffffffffffffffffffffffffffffffff\n  and\n  mul\n  or\n  swap1\n  sstore\n  pop\n    /* \"contracts/home.sol\":119:1770  contract Home {... */\n  dataSize(sub_0)\n  dup1\n  dataOffset(sub_0)\n  0x00\n  codecopy\n  0x00\n  return\nstop\n\nsub_0: assembly {\n        /* \"contracts/home.sol\":119:1770  contract Home {... */\n      mstore(0x40, 0x80)\n      jumpi(tag_1, lt(calldatasize, 0x04))\n      shr(0xe0, calldataload(0x00))\n      dup1\n      0x868a1119\n      gt\n      tag_11\n      jumpi\n      dup1\n      0x868a1119\n      eq\n      tag_6\n      jumpi\n      dup1\n      0x8da5cb5b\n      eq\n      tag_7\n      jumpi\n      dup1\n      0xaac7a814\n      eq\n      tag_8\n      jumpi\n      dup1\n      0xc1cfb99a\n      eq\n      tag_9\n      jumpi\n      dup1\n      0xf340fa01\n      eq\n      tag_10\n      jumpi\n      jump(tag_1)\n    tag_11:\n      dup1\n      0x0b93381b\n      eq\n      tag_2\n      jumpi\n      dup1\n      0x1989d3dc\n      eq\n      tag_3\n      jumpi\n      dup1\n      0x1d84d05c\n      eq\n      tag_4\n      jumpi\n      dup1\n      0x42909a9e\n      eq\n      tag_5\n      jumpi\n    tag_1:\n      0x00\n      dup1\n      revert\n        /* \"contracts/home.sol\":243:262  bool public success */\n    tag_2:\n      callvalue\n      dup1\n      iszero\n      tag_12\n      jumpi\n      0x00\n      dup1\n      revert\n    tag_12:\n      pop\n      tag_13\n      tag_14\n      jump\t// in\n    tag_13:\n      mload(0x40)\n      tag_15\n      swap2\n      swap1\n      tag_16\n      jump\t// in\n    tag_15:\n      mload(0x40)\n      dup1\n      swap2\n      sub\n      swap1\n      return\n        /* \"contracts/home.sol\":214:236  address[] public room_ */\n    tag_3:\n      callvalue\n      dup1\n      iszero\n      tag_17\n      jumpi\n      0x00\n      dup1\n      revert\n    tag_17:\n      pop\n      tag_18\n      0x04\n      dup1\n      calldatasize\n      sub\n      dup2\n      add\n      swap1\n      tag_19\n      swap2\n      swap1\n      tag_20\n      jump\t// in\n    tag_19:\n      tag_21\n      jump\t// in\n    tag_18:\n      mload(0x40)\n      tag_22\n      swap2\n      swap1\n      tag_23\n      jump\t// in\n    tag_22:\n      mload(0x40)\n      dup1\n      swap2\n      sub\n      swap1\n      return\n        /* \"contracts/home.sol\":1021:1346  function join_game(address _room) external payable {... */\n    tag_4:\n      tag_24\n      0x04\n      dup1\n      calldatasize\n      sub\n      dup2\n      add\n      swap1\n      tag_25\n      swap2\n      swap1\n      tag_26\n      jump\t// in\n    tag_25:\n      tag_27\n      jump\t// in\n    tag_24:\n      stop\n        /* \"contracts/home.sol\":463:1011  function create_game() external payable returns (address) {... */\n    tag_5:\n      tag_28\n      tag_29\n      jump\t// in\n    tag_28:\n      mload(0x40)\n      tag_30\n      swap2\n      swap1\n      tag_23\n      jump\t// in\n    tag_30:\n      mload(0x40)\n      dup1\n      swap2\n      sub\n      swap1\n      return\n        /* \"contracts/home.sol\":167:207  mapping(Room => address[2]) public rooms */\n    tag_6:\n      callvalue\n      dup1\n      iszero\n      tag_31\n      jumpi\n      0x00\n      dup1\n      revert\n    tag_31:\n      pop\n      tag_32\n      0x04\n      dup1\n      calldatasize\n      sub\n      dup2\n      add\n      swap1\n      tag_33\n      swap2\n      swap1\n      tag_34\n      jump\t// in\n    tag_33:\n      tag_35\n      jump\t// in\n    tag_32:\n      mload(0x40)\n      tag_36\n      swap2\n      swap1\n      tag_23\n      jump\t// in\n    tag_36:\n      mload(0x40)\n      dup1\n      swap2\n      sub\n      swap1\n      return\n        /* \"contracts/home.sol\":140:160  address public owner */\n    tag_7:\n      callvalue\n      dup1\n      iszero\n      tag_37\n      jumpi\n      0x00\n      dup1\n      revert\n    tag_37:\n      pop\n      tag_38\n      tag_39\n      jump\t// in\n    tag_38:\n      mload(0x40)\n      tag_40\n      swap2\n      swap1\n      tag_23\n      jump\t// in\n    tag_40:\n      mload(0x40)\n      dup1\n      swap2\n      sub\n      swap1\n      return\n        /* \"contracts/home.sol\":1507:1652  function end_game( address _room , address _winner) external {... */\n    tag_8:\n      callvalue\n      dup1\n      iszero\n      tag_41\n      jumpi\n      0x00\n      dup1\n      revert\n    tag_41:\n      pop\n      tag_42\n      0x04\n      dup1\n      calldatasize\n      sub\n      dup2\n      add\n      swap1\n      tag_43\n      swap2\n      swap1\n      tag_44\n      jump\t// in\n    tag_43:\n      tag_45\n      jump\t// in\n    tag_42:\n      stop\n        /* \"contracts/home.sol\":1660:1762  function get_balance() external view returns (uint256) {... */\n    tag_9:\n      callvalue\n      dup1\n      iszero\n      tag_46\n      jumpi\n      0x00\n      dup1\n      revert\n    tag_46:\n      pop\n      tag_47\n      tag_48\n      jump\t// in\n    tag_47:\n      mload(0x40)\n      tag_49\n      swap2\n      swap1\n      tag_50\n      jump\t// in\n    tag_49:\n      mload(0x40)\n      dup1\n      swap2\n      sub\n      swap1\n      return\n        /* \"contracts/home.sol\":1354:1499  function deposit(address _room) external {... */\n    tag_10:\n      callvalue\n      dup1\n      iszero\n      tag_51\n      jumpi\n      0x00\n      dup1\n      revert\n    tag_51:\n      pop\n      tag_52\n      0x04\n      dup1\n      calldatasize\n      sub\n      dup2\n      add\n      swap1\n      tag_53\n      swap2\n      swap1\n      tag_26\n      jump\t// in\n    tag_53:\n      tag_54\n      jump\t// in\n    tag_52:\n      stop\n        /* \"contracts/home.sol\":243:262  bool public success */\n    tag_14:\n      0x03\n      0x00\n      swap1\n      sload\n      swap1\n      0x0100\n      exp\n      swap1\n      div\n      0xff\n      and\n      dup2\n      jump\t// out\n        /* \"contracts/home.sol\":214:236  address[] public room_ */\n    tag_21:\n      0x02\n      dup2\n      dup2\n      sload\n      dup2\n      lt\n      tag_55\n      jumpi\n      0x00\n      dup1\n      revert\n    tag_55:\n      swap1\n      0x00\n      mstore\n      keccak256(0x00, 0x20)\n      add\n      0x00\n      swap2\n      pop\n      sload\n      swap1\n      0x0100\n      exp\n      swap1\n      div\n      0xffffffffffffffffffffffffffffffffffffffff\n      and\n      dup2\n      jump\t// out\n        /* \"contracts/home.sol\":1021:1346  function join_game(address _room) external payable {... */\n    tag_27:\n        /* \"contracts/home.sol\":1083:1092  Room room */\n      0x00\n        /* \"contracts/home.sol\":1108:1113  _room */\n      dup2\n        /* \"contracts/home.sol\":1083:1115  Room room = Room(payable(_room)) */\n      swap1\n      pop\n        /* \"contracts/home.sol\":1143:1153  msg.sender */\n      caller\n        /* \"contracts/home.sol\":1126:1131  rooms */\n      0x01\n        /* \"contracts/home.sol\":1126:1137  rooms[room] */\n      0x00\n        /* \"contracts/home.sol\":1132:1136  room */\n      dup4\n        /* \"contracts/home.sol\":1126:1137  rooms[room] */\n      0xffffffffffffffffffffffffffffffffffffffff\n      and\n      0xffffffffffffffffffffffffffffffffffffffff\n      and\n      dup2\n      mstore\n      0x20\n      add\n      swap1\n      dup2\n      mstore\n      0x20\n      add\n      0x00\n      keccak256\n        /* \"contracts/home.sol\":1138:1139  1 */\n      0x01\n        /* \"contracts/home.sol\":1126:1140  rooms[room][1] */\n      0x02\n      dup2\n      lt\n      tag_58\n      jumpi\n      tag_59\n      tag_60\n      jump\t// in\n    tag_59:\n    tag_58:\n      add\n      0x00\n        /* \"contracts/home.sol\":1126:1153  rooms[room][1] = msg.sender */\n      0x0100\n      exp\n      dup2\n      sload\n      dup2\n      0xffffffffffffffffffffffffffffffffffffffff\n      mul\n      not\n      and\n      swap1\n      dup4\n      0xffffffffffffffffffffffffffffffffffffffff\n      and\n      mul\n      or\n      swap1\n      sstore\n      pop\n        /* \"contracts/home.sol\":1165:1178  bool _success */\n      0x00\n        /* \"contracts/home.sol\":1200:1204  room */\n      dup2\n        /* \"contracts/home.sol\":1184:1211  payable(address(room)).call */\n      0xffffffffffffffffffffffffffffffffffffffff\n      and\n        /* \"contracts/home.sol\":1219:1228  msg.value */\n      callvalue\n        /* \"contracts/home.sol\":1184:1233  payable(address(room)).call{value: msg.value}(\"\") */\n      mload(0x40)\n      tag_62\n      swap1\n      tag_63\n      jump\t// in\n    tag_62:\n      0x00\n      mload(0x40)\n      dup1\n      dup4\n      sub\n      dup2\n      dup6\n      dup8\n      gas\n      call\n      swap3\n      pop\n      pop\n      pop\n      returndatasize\n      dup1\n      0x00\n      dup2\n      eq\n      tag_66\n      jumpi\n      mload(0x40)\n      swap2\n      pop\n      and(add(returndatasize, 0x3f), not(0x1f))\n      dup3\n      add\n      0x40\n      mstore\n      returndatasize\n      dup3\n      mstore\n      returndatasize\n      0x00\n      0x20\n      dup5\n      add\n      returndatacopy\n      jump(tag_65)\n    tag_66:\n      0x60\n      swap2\n      pop\n    tag_65:\n      pop\n        /* \"contracts/home.sol\":1164:1233  (bool _success, ) = payable(address(room)).call{value: msg.value}(\"\") */\n      pop\n      swap1\n      pop\n        /* \"contracts/home.sol\":1254:1262  _success */\n      dup1\n        /* \"contracts/home.sol\":1244:1251  success */\n      0x03\n      0x00\n        /* \"contracts/home.sol\":1244:1262  success = _success */\n      0x0100\n      exp\n      dup2\n      sload\n      dup2\n      0xff\n      mul\n      not\n      and\n      swap1\n      dup4\n      iszero\n      iszero\n      mul\n      or\n      swap1\n      sstore\n      pop\n        /* \"contracts/home.sol\":1072:1346  {... */\n      pop\n      pop\n        /* \"contracts/home.sol\":1021:1346  function join_game(address _room) external payable {... */\n      pop\n      jump\t// out\n        /* \"contracts/home.sol\":463:1011  function create_game() external payable returns (address) {... */\n    tag_29:\n        /* \"contracts/home.sol\":512:519  address */\n      0x00\n        /* \"contracts/home.sol\":532:541  Room room */\n      dup1\n        /* \"contracts/home.sol\":553:563  msg.sender */\n      caller\n        /* \"contracts/home.sol\":544:564  new Room(msg.sender) */\n      mload(0x40)\n      tag_68\n      swap1\n      tag_69\n      jump\t// in\n    tag_68:\n      tag_70\n      swap2\n      swap1\n      tag_23\n      jump\t// in\n    tag_70:\n      mload(0x40)\n      dup1\n      swap2\n      sub\n      swap1\n      0x00\n      create\n      dup1\n      iszero\n      dup1\n      iszero\n      tag_71\n      jumpi\n      returndatasize\n      0x00\n      dup1\n      returndatacopy\n      revert(0x00, returndatasize)\n    tag_71:\n      pop\n        /* \"contracts/home.sol\":532:564  Room room = new Room(msg.sender) */\n      swap1\n      pop\n        /* \"contracts/home.sol\":575:613  rooms[room] = [msg.sender, address(0)] */\n      mload(0x40)\n      dup1\n      0x40\n      add\n      0x40\n      mstore\n      dup1\n        /* \"contracts/home.sol\":590:600  msg.sender */\n      caller\n        /* \"contracts/home.sol\":575:613  rooms[room] = [msg.sender, address(0)] */\n      0xffffffffffffffffffffffffffffffffffffffff\n      and\n      0xffffffffffffffffffffffffffffffffffffffff\n      and\n      dup2\n      mstore\n      0x20\n      add\n        /* \"contracts/home.sol\":610:611  0 */\n      0x00\n        /* \"contracts/home.sol\":575:613  rooms[room] = [msg.sender, address(0)] */\n      0xffffffffffffffffffffffffffffffffffffffff\n      and\n      0xffffffffffffffffffffffffffffffffffffffff\n      and\n      dup2\n      mstore\n      pop\n        /* \"contracts/home.sol\":575:580  rooms */\n      0x01\n        /* \"contracts/home.sol\":575:586  rooms[room] */\n      0x00\n        /* \"contracts/home.sol\":581:585  room */\n      dup4\n        /* \"contracts/home.sol\":575:586  rooms[room] */\n      0xffffffffffffffffffffffffffffffffffffffff\n      and\n      0xffffffffffffffffffffffffffffffffffffffff\n      and\n      dup2\n      mstore\n      0x20\n      add\n      swap1\n      dup2\n      mstore\n      0x20\n      add\n      0x00\n      keccak256\n        /* \"contracts/home.sol\":575:613  rooms[room] = [msg.sender, address(0)] */\n      swap1\n      0x02\n      tag_72\n      swap3\n      swap2\n      swap1\n      tag_73\n      jump\t// in\n    tag_72:\n      pop\n        /* \"contracts/home.sol\":740:745  room_ */\n      0x02\n        /* \"contracts/home.sol\":759:763  room */\n      dup2\n        /* \"contracts/home.sol\":740:765  room_.push(address(room)) */\n      swap1\n      dup1\n      0x01\n      dup2\n      sload\n      add\n      dup1\n      dup3\n      sstore\n      dup1\n      swap2\n      pop\n      pop\n      0x01\n      swap1\n      sub\n      swap1\n      0x00\n      mstore\n      keccak256(0x00, 0x20)\n      add\n      0x00\n      swap1\n      swap2\n      swap1\n      swap2\n      swap1\n      swap2\n      0x0100\n      exp\n      dup2\n      sload\n      dup2\n      0xffffffffffffffffffffffffffffffffffffffff\n      mul\n      not\n      and\n      swap1\n      dup4\n      0xffffffffffffffffffffffffffffffffffffffff\n      and\n      mul\n      or\n      swap1\n      sstore\n      pop\n        /* \"contracts/home.sol\":777:790  bool _success */\n      0x00\n        /* \"contracts/home.sol\":812:816  room */\n      dup2\n        /* \"contracts/home.sol\":796:823  payable(address(room)).call */\n      0xffffffffffffffffffffffffffffffffffffffff\n      and\n        /* \"contracts/home.sol\":831:840  msg.value */\n      callvalue\n        /* \"contracts/home.sol\":796:845  payable(address(room)).call{value: msg.value}(\"\") */\n      mload(0x40)\n      tag_75\n      swap1\n      tag_63\n      jump\t// in\n    tag_75:\n      0x00\n      mload(0x40)\n      dup1\n      dup4\n      sub\n      dup2\n      dup6\n      dup8\n      gas\n      call\n      swap3\n      pop\n      pop\n      pop\n      returndatasize\n      dup1\n      0x00\n      dup2\n      eq\n      tag_78\n      jumpi\n      mload(0x40)\n      swap2\n      pop\n      and(add(returndatasize, 0x3f), not(0x1f))\n      dup3\n      add\n      0x40\n      mstore\n      returndatasize\n      dup3\n      mstore\n      returndatasize\n      0x00\n      0x20\n      dup5\n      add\n      returndatacopy\n      jump(tag_77)\n    tag_78:\n      0x60\n      swap2\n      pop\n    tag_77:\n      pop\n        /* \"contracts/home.sol\":776:845  (bool _success, ) = payable(address(room)).call{value: msg.value}(\"\") */\n      pop\n      swap1\n      pop\n        /* \"contracts/home.sol\":866:874  _success */\n      dup1\n        /* \"contracts/home.sol\":856:863  success */\n      0x03\n      0x00\n        /* \"contracts/home.sol\":856:874  success = _success */\n      0x0100\n      exp\n      dup2\n      sload\n      dup2\n      0xff\n      mul\n      not\n      and\n      swap1\n      dup4\n      iszero\n      iszero\n      mul\n      or\n      swap1\n      sstore\n      pop\n        /* \"contracts/home.sol\":900:904  room */\n      dup2\n        /* \"contracts/home.sol\":885:905  return address(room) */\n      swap3\n      pop\n      pop\n      pop\n        /* \"contracts/home.sol\":463:1011  function create_game() external payable returns (address) {... */\n      swap1\n      jump\t// out\n        /* \"contracts/home.sol\":167:207  mapping(Room => address[2]) public rooms */\n    tag_35:\n      mstore(0x20, 0x01)\n      dup2\n      0x00\n      mstore\n      keccak256(0x00, 0x40)\n      dup2\n      0x02\n      dup2\n      lt\n      tag_79\n      jumpi\n      0x00\n      dup1\n      revert\n    tag_79:\n      add\n      0x00\n      swap2\n      pop\n      swap2\n      pop\n      swap1\n      sload\n      swap1\n      0x0100\n      exp\n      swap1\n      div\n      0xffffffffffffffffffffffffffffffffffffffff\n      and\n      dup2\n      jump\t// out\n        /* \"contracts/home.sol\":140:160  address public owner */\n    tag_39:\n      0x00\n      dup1\n      sload\n      swap1\n      0x0100\n      exp\n      swap1\n      div\n      0xffffffffffffffffffffffffffffffffffffffff\n      and\n      dup2\n      jump\t// out\n        /* \"contracts/home.sol\":1507:1652  function end_game( address _room , address _winner) external {... */\n    tag_45:\n        /* \"contracts/home.sol\":1579:1588  Room room */\n      0x00\n        /* \"contracts/home.sol\":1604:1609  _room */\n      dup3\n        /* \"contracts/home.sol\":1579:1611  Room room = Room(payable(_room)) */\n      swap1\n      pop\n        /* \"contracts/home.sol\":1622:1626  room */\n      dup1\n        /* \"contracts/home.sol\":1622:1635  room.game_end */\n      0xffffffffffffffffffffffffffffffffffffffff\n      and\n      0x48db29ea\n        /* \"contracts/home.sol\":1636:1643  _winner */\n      dup4\n        /* \"contracts/home.sol\":1622:1644  room.game_end(_winner) */\n      mload(0x40)\n      dup3\n      0xffffffff\n      and\n      0xe0\n      shl\n      dup2\n      mstore\n      0x04\n      add\n      tag_82\n      swap2\n      swap1\n      tag_23\n      jump\t// in\n    tag_82:\n      0x00\n      mload(0x40)\n      dup1\n      dup4\n      sub\n      dup2\n      0x00\n      dup8\n      dup1\n      extcodesize\n      iszero\n      dup1\n      iszero\n      tag_83\n      jumpi\n      0x00\n      dup1\n      revert\n    tag_83:\n      pop\n      gas\n      call\n      iszero\n      dup1\n      iszero\n      tag_85\n      jumpi\n      returndatasize\n      0x00\n      dup1\n      returndatacopy\n      revert(0x00, returndatasize)\n    tag_85:\n      pop\n      pop\n      pop\n      pop\n        /* \"contracts/home.sol\":1568:1652  {... */\n      pop\n        /* \"contracts/home.sol\":1507:1652  function end_game( address _room , address _winner) external {... */\n      pop\n      pop\n      jump\t// out\n        /* \"contracts/home.sol\":1660:1762  function get_balance() external view returns (uint256) {... */\n    tag_48:\n        /* \"contracts/home.sol\":1706:1713  uint256 */\n      0x00\n        /* \"contracts/home.sol\":1733:1754  address(this).balance */\n      selfbalance\n        /* \"contracts/home.sol\":1726:1754  return address(this).balance */\n      swap1\n      pop\n        /* \"contracts/home.sol\":1660:1762  function get_balance() external view returns (uint256) {... */\n      swap1\n      jump\t// out\n        /* \"contracts/home.sol\":1354:1499  function deposit(address _room) external {... */\n    tag_54:\n        /* \"contracts/home.sol\":1407:1420  bool _success */\n      0x00\n        /* \"contracts/home.sol\":1434:1439  _room */\n      dup2\n        /* \"contracts/home.sol\":1426:1445  payable(_room).call */\n      0xffffffffffffffffffffffffffffffffffffffff\n      and\n        /* \"contracts/home.sol\":1453:1457  1e18 */\n      0x0de0b6b3a7640000\n        /* \"contracts/home.sol\":1426:1462  payable(_room).call{value: 1e18}(\"\") */\n      mload(0x40)\n      tag_88\n      swap1\n      tag_63\n      jump\t// in\n    tag_88:\n      0x00\n      mload(0x40)\n      dup1\n      dup4\n      sub\n      dup2\n      dup6\n      dup8\n      gas\n      call\n      swap3\n      pop\n      pop\n      pop\n      returndatasize\n      dup1\n      0x00\n      dup2\n      eq\n      tag_91\n      jumpi\n      mload(0x40)\n      swap2\n      pop\n      and(add(returndatasize, 0x3f), not(0x1f))\n      dup3\n      add\n      0x40\n      mstore\n      returndatasize\n      dup3\n      mstore\n      returndatasize\n      0x00\n      0x20\n      dup5\n      add\n      returndatacopy\n      jump(tag_90)\n    tag_91:\n      0x60\n      swap2\n      pop\n    tag_90:\n      pop\n        /* \"contracts/home.sol\":1406:1462  (bool _success, ) = payable(_room).call{value: 1e18}(\"\") */\n      pop\n      swap1\n      pop\n        /* \"contracts/home.sol\":1483:1491  _success */\n      dup1\n        /* \"contracts/home.sol\":1473:1480  success */\n      0x03\n      0x00\n        /* \"contracts/home.sol\":1473:1491  success = _success */\n      0x0100\n      exp\n      dup2\n      sload\n      dup2\n      0xff\n      mul\n      not\n      and\n      swap1\n      dup4\n      iszero\n      iszero\n      mul\n      or\n      swap1\n      sstore\n      pop\n        /* \"contracts/home.sol\":1395:1499  {... */\n      pop\n        /* \"contracts/home.sol\":1354:1499  function deposit(address _room) external {... */\n      pop\n      jump\t// out\n    tag_69:\n      dataSize(sub_0)\n      dup1\n      dataOffset(sub_0)\n      dup4\n      codecopy\n      add\n      swap1\n      jump\t// out\n    tag_73:\n      dup3\n      0x02\n      dup2\n      add\n      swap3\n      dup3\n      iszero\n      tag_92\n      jumpi\n      swap2\n      0x20\n      mul\n      dup3\n      add\n    tag_93:\n      dup3\n      dup2\n      gt\n      iszero\n      tag_94\n      jumpi\n      dup3\n      mload\n      dup3\n      exp(0x0100, 0x00)\n      dup2\n      sload\n      dup2\n      0xffffffffffffffffffffffffffffffffffffffff\n      mul\n      not\n      and\n      swap1\n      dup4\n      0xffffffffffffffffffffffffffffffffffffffff\n      and\n      mul\n      or\n      swap1\n      sstore\n      pop\n      swap2\n      0x20\n      add\n      swap2\n      swap1\n      0x01\n      add\n      swap1\n      jump(tag_93)\n    tag_94:\n    tag_92:\n      pop\n      swap1\n      pop\n      tag_95\n      swap2\n      swap1\n      tag_96\n      jump\t// in\n    tag_95:\n      pop\n      swap1\n      jump\t// out\n    tag_96:\n    tag_97:\n      dup1\n      dup3\n      gt\n      iszero\n      tag_98\n      jumpi\n      0x00\n      dup2\n      0x00\n      swap1\n      sstore\n      pop\n      0x01\n      add\n      jump(tag_97)\n    tag_98:\n      pop\n      swap1\n      jump\t// out\n        /* \"#utility.yul\":7:97   */\n    tag_99:\n        /* \"#utility.yul\":41:48   */\n      0x00\n        /* \"#utility.yul\":84:89   */\n      dup2\n        /* \"#utility.yul\":77:90   */\n      iszero\n        /* \"#utility.yul\":70:91   */\n      iszero\n        /* \"#utility.yul\":59:91   */\n      swap1\n      pop\n        /* \"#utility.yul\":7:97   */\n      swap2\n      swap1\n      pop\n      jump\t// out\n        /* \"#utility.yul\":103:212   */\n    tag_100:\n        /* \"#utility.yul\":184:205   */\n      tag_123\n        /* \"#utility.yul\":199:204   */\n      dup2\n        /* \"#utility.yul\":184:205   */\n      tag_99\n      jump\t// in\n    tag_123:\n        /* \"#utility.yul\":179:182   */\n      dup3\n        /* \"#utility.yul\":172:206   */\n      mstore\n        /* \"#utility.yul\":103:212   */\n      pop\n      pop\n      jump\t// out\n        /* \"#utility.yul\":218:428   */\n    tag_16:\n        /* \"#utility.yul\":305:309   */\n      0x00\n        /* \"#utility.yul\":343:345   */\n      0x20\n        /* \"#utility.yul\":332:341   */\n      dup3\n        /* \"#utility.yul\":328:346   */\n      add\n        /* \"#utility.yul\":320:346   */\n      swap1\n      pop\n        /* \"#utility.yul\":356:421   */\n      tag_125\n        /* \"#utility.yul\":418:419   */\n      0x00\n        /* \"#utility.yul\":407:416   */\n      dup4\n        /* \"#utility.yul\":403:420   */\n      add\n        /* \"#utility.yul\":394:400   */\n      dup5\n        /* \"#utility.yul\":356:421   */\n      tag_100\n      jump\t// in\n    tag_125:\n        /* \"#utility.yul\":218:428   */\n      swap3\n      swap2\n      pop\n      pop\n      jump\t// out\n        /* \"#utility.yul\":515:632   */\n    tag_102:\n        /* \"#utility.yul\":624:625   */\n      0x00\n        /* \"#utility.yul\":621:622   */\n      dup1\n        /* \"#utility.yul\":614:626   */\n      revert\n        /* \"#utility.yul\":761:838   */\n    tag_104:\n        /* \"#utility.yul\":798:805   */\n      0x00\n        /* \"#utility.yul\":827:832   */\n      dup2\n        /* \"#utility.yul\":816:832   */\n      swap1\n      pop\n        /* \"#utility.yul\":761:838   */\n      swap2\n      swap1\n      pop\n      jump\t// out\n        /* \"#utility.yul\":844:966   */\n    tag_105:\n        /* \"#utility.yul\":917:941   */\n      tag_131\n        /* \"#utility.yul\":935:940   */\n      dup2\n        /* \"#utility.yul\":917:941   */\n      tag_104\n      jump\t// in\n    tag_131:\n        /* \"#utility.yul\":910:915   */\n      dup2\n        /* \"#utility.yul\":907:942   */\n      eq\n        /* \"#utility.yul\":897:960   */\n      tag_132\n      jumpi\n        /* \"#utility.yul\":956:957   */\n      0x00\n        /* \"#utility.yul\":953:954   */\n      dup1\n        /* \"#utility.yul\":946:958   */\n      revert\n        /* \"#utility.yul\":897:960   */\n    tag_132:\n        /* \"#utility.yul\":844:966   */\n      pop\n      jump\t// out\n        /* \"#utility.yul\":972:1111   */\n    tag_106:\n        /* \"#utility.yul\":1018:1023   */\n      0x00\n        /* \"#utility.yul\":1056:1062   */\n      dup2\n        /* \"#utility.yul\":1043:1063   */\n      calldataload\n        /* \"#utility.yul\":1034:1063   */\n      swap1\n      pop\n        /* \"#utility.yul\":1072:1105   */\n      tag_134\n        /* \"#utility.yul\":1099:1104   */\n      dup2\n        /* \"#utility.yul\":1072:1105   */\n      tag_105\n      jump\t// in\n    tag_134:\n        /* \"#utility.yul\":972:1111   */\n      swap3\n      swap2\n      pop\n      pop\n      jump\t// out\n        /* \"#utility.yul\":1117:1446   */\n    tag_20:\n        /* \"#utility.yul\":1176:1182   */\n      0x00\n        /* \"#utility.yul\":1225:1227   */\n      0x20\n        /* \"#utility.yul\":1213:1222   */\n      dup3\n        /* \"#utility.yul\":1204:1211   */\n      dup5\n        /* \"#utility.yul\":1200:1223   */\n      sub\n        /* \"#utility.yul\":1196:1228   */\n      slt\n        /* \"#utility.yul\":1193:1312   */\n      iszero\n      tag_136\n      jumpi\n        /* \"#utility.yul\":1231:1310   */\n      tag_137\n      tag_102\n      jump\t// in\n    tag_137:\n        /* \"#utility.yul\":1193:1312   */\n    tag_136:\n        /* \"#utility.yul\":1351:1352   */\n      0x00\n        /* \"#utility.yul\":1376:1429   */\n      tag_138\n        /* \"#utility.yul\":1421:1428   */\n      dup5\n        /* \"#utility.yul\":1412:1418   */\n      dup3\n        /* \"#utility.yul\":1401:1410   */\n      dup6\n        /* \"#utility.yul\":1397:1419   */\n      add\n        /* \"#utility.yul\":1376:1429   */\n      tag_106\n      jump\t// in\n    tag_138:\n        /* \"#utility.yul\":1366:1429   */\n      swap2\n      pop\n        /* \"#utility.yul\":1322:1439   */\n      pop\n        /* \"#utility.yul\":1117:1446   */\n      swap3\n      swap2\n      pop\n      pop\n      jump\t// out\n        /* \"#utility.yul\":1452:1578   */\n    tag_107:\n        /* \"#utility.yul\":1489:1496   */\n      0x00\n        /* \"#utility.yul\":1529:1571   */\n      0xffffffffffffffffffffffffffffffffffffffff\n        /* \"#utility.yul\":1522:1527   */\n      dup3\n        /* \"#utility.yul\":1518:1572   */\n      and\n        /* \"#utility.yul\":1507:1572   */\n      swap1\n      pop\n        /* \"#utility.yul\":1452:1578   */\n      swap2\n      swap1\n      pop\n      jump\t// out\n        /* \"#utility.yul\":1584:1680   */\n    tag_108:\n        /* \"#utility.yul\":1621:1628   */\n      0x00\n        /* \"#utility.yul\":1650:1674   */\n      tag_141\n        /* \"#utility.yul\":1668:1673   */\n      dup3\n        /* \"#utility.yul\":1650:1674   */\n      tag_107\n      jump\t// in\n    tag_141:\n        /* \"#utility.yul\":1639:1674   */\n      swap1\n      pop\n        /* \"#utility.yul\":1584:1680   */\n      swap2\n      swap1\n      pop\n      jump\t// out\n        /* \"#utility.yul\":1686:1804   */\n    tag_109:\n        /* \"#utility.yul\":1773:1797   */\n      tag_143\n        /* \"#utility.yul\":1791:1796   */\n      dup2\n        /* \"#utility.yul\":1773:1797   */\n      tag_108\n      jump\t// in\n    tag_143:\n        /* \"#utility.yul\":1768:1771   */\n      dup3\n        /* \"#utility.yul\":1761:1798   */\n      mstore\n        /* \"#utility.yul\":1686:1804   */\n      pop\n      pop\n      jump\t// out\n        /* \"#utility.yul\":1810:2032   */\n    tag_23:\n        /* \"#utility.yul\":1903:1907   */\n      0x00\n        /* \"#utility.yul\":1941:1943   */\n      0x20\n        /* \"#utility.yul\":1930:1939   */\n      dup3\n        /* \"#utility.yul\":1926:1944   */\n      add\n        /* \"#utility.yul\":1918:1944   */\n      swap1\n      pop\n        /* \"#utility.yul\":1954:2025   */\n      tag_145\n        /* \"#utility.yul\":2022:2023   */\n      0x00\n        /* \"#utility.yul\":2011:2020   */\n      dup4\n        /* \"#utility.yul\":2007:2024   */\n      add\n        /* \"#utility.yul\":1998:2004   */\n      dup5\n        /* \"#utility.yul\":1954:2025   */\n      tag_109\n      jump\t// in\n    tag_145:\n        /* \"#utility.yul\":1810:2032   */\n      swap3\n      swap2\n      pop\n      pop\n      jump\t// out\n        /* \"#utility.yul\":2038:2160   */\n    tag_110:\n        /* \"#utility.yul\":2111:2135   */\n      tag_147\n        /* \"#utility.yul\":2129:2134   */\n      dup2\n        /* \"#utility.yul\":2111:2135   */\n      tag_108\n      jump\t// in\n    tag_147:\n        /* \"#utility.yul\":2104:2109   */\n      dup2\n        /* \"#utility.yul\":2101:2136   */\n      eq\n        /* \"#utility.yul\":2091:2154   */\n      tag_148\n      jumpi\n        /* \"#utility.yul\":2150:2151   */\n      0x00\n        /* \"#utility.yul\":2147:2148   */\n      dup1\n        /* \"#utility.yul\":2140:2152   */\n      revert\n        /* \"#utility.yul\":2091:2154   */\n    tag_148:\n        /* \"#utility.yul\":2038:2160   */\n      pop\n      jump\t// out\n        /* \"#utility.yul\":2166:2305   */\n    tag_111:\n        /* \"#utility.yul\":2212:2217   */\n      0x00\n        /* \"#utility.yul\":2250:2256   */\n      dup2\n        /* \"#utility.yul\":2237:2257   */\n      calldataload\n        /* \"#utility.yul\":2228:2257   */\n      swap1\n      pop\n        /* \"#utility.yul\":2266:2299   */\n      tag_150\n        /* \"#utility.yul\":2293:2298   */\n      dup2\n        /* \"#utility.yul\":2266:2299   */\n      tag_110\n      jump\t// in\n    tag_150:\n        /* \"#utility.yul\":2166:2305   */\n      swap3\n      swap2\n      pop\n      pop\n      jump\t// out\n        /* \"#utility.yul\":2311:2640   */\n    tag_26:\n        /* \"#utility.yul\":2370:2376   */\n      0x00\n        /* \"#utility.yul\":2419:2421   */\n      0x20\n        /* \"#utility.yul\":2407:2416   */\n      dup3\n        /* \"#utility.yul\":2398:2405   */\n      dup5\n        /* \"#utility.yul\":2394:2417   */\n      sub\n        /* \"#utility.yul\":2390:2422   */\n      slt\n        /* \"#utility.yul\":2387:2506   */\n      iszero\n      tag_152\n      jumpi\n        /* \"#utility.yul\":2425:2504   */\n      tag_153\n      tag_102\n      jump\t// in\n    tag_153:\n        /* \"#utility.yul\":2387:2506   */\n    tag_152:\n        /* \"#utility.yul\":2545:2546   */\n      0x00\n        /* \"#utility.yul\":2570:2623   */\n      tag_154\n        /* \"#utility.yul\":2615:2622   */\n      dup5\n        /* \"#utility.yul\":2606:2612   */\n      dup3\n        /* \"#utility.yul\":2595:2604   */\n      dup6\n        /* \"#utility.yul\":2591:2613   */\n      add\n        /* \"#utility.yul\":2570:2623   */\n      tag_111\n      jump\t// in\n    tag_154:\n        /* \"#utility.yul\":2560:2623   */\n      swap2\n      pop\n        /* \"#utility.yul\":2516:2633   */\n      pop\n        /* \"#utility.yul\":2311:2640   */\n      swap3\n      swap2\n      pop\n      pop\n      jump\t// out\n        /* \"#utility.yul\":2646:2750   */\n    tag_112:\n        /* \"#utility.yul\":2691:2698   */\n      0x00\n        /* \"#utility.yul\":2720:2744   */\n      tag_156\n        /* \"#utility.yul\":2738:2743   */\n      dup3\n        /* \"#utility.yul\":2720:2744   */\n      tag_107\n      jump\t// in\n    tag_156:\n        /* \"#utility.yul\":2709:2744   */\n      swap1\n      pop\n        /* \"#utility.yul\":2646:2750   */\n      swap2\n      swap1\n      pop\n      jump\t// out\n        /* \"#utility.yul\":2756:2872   */\n    tag_113:\n        /* \"#utility.yul\":2805:2812   */\n      0x00\n        /* \"#utility.yul\":2834:2866   */\n      tag_158\n        /* \"#utility.yul\":2860:2865   */\n      dup3\n        /* \"#utility.yul\":2834:2866   */\n      tag_112\n      jump\t// in\n    tag_158:\n        /* \"#utility.yul\":2823:2866   */\n      swap1\n      pop\n        /* \"#utility.yul\":2756:2872   */\n      swap2\n      swap1\n      pop\n      jump\t// out\n        /* \"#utility.yul\":2878:3024   */\n    tag_114:\n        /* \"#utility.yul\":2963:2999   */\n      tag_160\n        /* \"#utility.yul\":2993:2998   */\n      dup2\n        /* \"#utility.yul\":2963:2999   */\n      tag_113\n      jump\t// in\n    tag_160:\n        /* \"#utility.yul\":2956:2961   */\n      dup2\n        /* \"#utility.yul\":2953:3000   */\n      eq\n        /* \"#utility.yul\":2943:3018   */\n      tag_161\n      jumpi\n        /* \"#utility.yul\":3014:3015   */\n      0x00\n        /* \"#utility.yul\":3011:3012   */\n      dup1\n        /* \"#utility.yul\":3004:3016   */\n      revert\n        /* \"#utility.yul\":2943:3018   */\n    tag_161:\n        /* \"#utility.yul\":2878:3024   */\n      pop\n      jump\t// out\n        /* \"#utility.yul\":3030:3193   */\n    tag_115:\n        /* \"#utility.yul\":3088:3093   */\n      0x00\n        /* \"#utility.yul\":3126:3132   */\n      dup2\n        /* \"#utility.yul\":3113:3133   */\n      calldataload\n        /* \"#utility.yul\":3104:3133   */\n      swap1\n      pop\n        /* \"#utility.yul\":3142:3187   */\n      tag_163\n        /* \"#utility.yul\":3181:3186   */\n      dup2\n        /* \"#utility.yul\":3142:3187   */\n      tag_114\n      jump\t// in\n    tag_163:\n        /* \"#utility.yul\":3030:3193   */\n      swap3\n      swap2\n      pop\n      pop\n      jump\t// out\n        /* \"#utility.yul\":3199:3697   */\n    tag_34:\n        /* \"#utility.yul\":3279:3285   */\n      0x00\n        /* \"#utility.yul\":3287:3293   */\n      dup1\n        /* \"#utility.yul\":3336:3338   */\n      0x40\n        /* \"#utility.yul\":3324:3333   */\n      dup4\n        /* \"#utility.yul\":3315:3322   */\n      dup6\n        /* \"#utility.yul\":3311:3334   */\n      sub\n        /* \"#utility.yul\":3307:3339   */\n      slt\n        /* \"#utility.yul\":3304:3423   */\n      iszero\n      tag_165\n      jumpi\n        /* \"#utility.yul\":3342:3421   */\n      tag_166\n      tag_102\n      jump\t// in\n    tag_166:\n        /* \"#utility.yul\":3304:3423   */\n    tag_165:\n        /* \"#utility.yul\":3462:3463   */\n      0x00\n        /* \"#utility.yul\":3487:3552   */\n      tag_167\n        /* \"#utility.yul\":3544:3551   */\n      dup6\n        /* \"#utility.yul\":3535:3541   */\n      dup3\n        /* \"#utility.yul\":3524:3533   */\n      dup7\n        /* \"#utility.yul\":3520:3542   */\n      add\n        /* \"#utility.yul\":3487:3552   */\n      tag_115\n      jump\t// in\n    tag_167:\n        /* \"#utility.yul\":3477:3552   */\n      swap3\n      pop\n        /* \"#utility.yul\":3433:3562   */\n      pop\n        /* \"#utility.yul\":3601:3603   */\n      0x20\n        /* \"#utility.yul\":3627:3680   */\n      tag_168\n        /* \"#utility.yul\":3672:3679   */\n      dup6\n        /* \"#utility.yul\":3663:3669   */\n      dup3\n        /* \"#utility.yul\":3652:3661   */\n      dup7\n        /* \"#utility.yul\":3648:3670   */\n      add\n        /* \"#utility.yul\":3627:3680   */\n      tag_106\n      jump\t// in\n    tag_168:\n        /* \"#utility.yul\":3617:3680   */\n      swap2\n      pop\n        /* \"#utility.yul\":3572:3690   */\n      pop\n        /* \"#utility.yul\":3199:3697   */\n      swap3\n      pop\n      swap3\n      swap1\n      pop\n      jump\t// out\n        /* \"#utility.yul\":3703:4177   */\n    tag_44:\n        /* \"#utility.yul\":3771:3777   */\n      0x00\n        /* \"#utility.yul\":3779:3785   */\n      dup1\n        /* \"#utility.yul\":3828:3830   */\n      0x40\n        /* \"#utility.yul\":3816:3825   */\n      dup4\n        /* \"#utility.yul\":3807:3814   */\n      dup6\n        /* \"#utility.yul\":3803:3826   */\n      sub\n        /* \"#utility.yul\":3799:3831   */\n      slt\n        /* \"#utility.yul\":3796:3915   */\n      iszero\n      tag_170\n      jumpi\n        /* \"#utility.yul\":3834:3913   */\n      tag_171\n      tag_102\n      jump\t// in\n    tag_171:\n        /* \"#utility.yul\":3796:3915   */\n    tag_170:\n        /* \"#utility.yul\":3954:3955   */\n      0x00\n        /* \"#utility.yul\":3979:4032   */\n      tag_172\n        /* \"#utility.yul\":4024:4031   */\n      dup6\n        /* \"#utility.yul\":4015:4021   */\n      dup3\n        /* \"#utility.yul\":4004:4013   */\n      dup7\n        /* \"#utility.yul\":4000:4022   */\n      add\n        /* \"#utility.yul\":3979:4032   */\n      tag_111\n      jump\t// in\n    tag_172:\n        /* \"#utility.yul\":3969:4032   */\n      swap3\n      pop\n        /* \"#utility.yul\":3925:4042   */\n      pop\n        /* \"#utility.yul\":4081:4083   */\n      0x20\n        /* \"#utility.yul\":4107:4160   */\n      tag_173\n        /* \"#utility.yul\":4152:4159   */\n      dup6\n        /* \"#utility.yul\":4143:4149   */\n      dup3\n        /* \"#utility.yul\":4132:4141   */\n      dup7\n        /* \"#utility.yul\":4128:4150   */\n      add\n        /* \"#utility.yul\":4107:4160   */\n      tag_111\n      jump\t// in\n    tag_173:\n        /* \"#utility.yul\":4097:4160   */\n      swap2\n      pop\n        /* \"#utility.yul\":4052:4170   */\n      pop\n        /* \"#utility.yul\":3703:4177   */\n      swap3\n      pop\n      swap3\n      swap1\n      pop\n      jump\t// out\n        /* \"#utility.yul\":4183:4301   */\n    tag_116:\n        /* \"#utility.yul\":4270:4294   */\n      tag_175\n        /* \"#utility.yul\":4288:4293   */\n      dup2\n        /* \"#utility.yul\":4270:4294   */\n      tag_104\n      jump\t// in\n    tag_175:\n        /* \"#utility.yul\":4265:4268   */\n      dup3\n        /* \"#utility.yul\":4258:4295   */\n      mstore\n        /* \"#utility.yul\":4183:4301   */\n      pop\n      pop\n      jump\t// out\n        /* \"#utility.yul\":4307:4529   */\n    tag_50:\n        /* \"#utility.yul\":4400:4404   */\n      0x00\n        /* \"#utility.yul\":4438:4440   */\n      0x20\n        /* \"#utility.yul\":4427:4436   */\n      dup3\n        /* \"#utility.yul\":4423:4441   */\n      add\n        /* \"#utility.yul\":4415:4441   */\n      swap1\n      pop\n        /* \"#utility.yul\":4451:4522   */\n      tag_177\n        /* \"#utility.yul\":4519:4520   */\n      0x00\n        /* \"#utility.yul\":4508:4517   */\n      dup4\n        /* \"#utility.yul\":4504:4521   */\n      add\n        /* \"#utility.yul\":4495:4501   */\n      dup5\n        /* \"#utility.yul\":4451:4522   */\n      tag_116\n      jump\t// in\n    tag_177:\n        /* \"#utility.yul\":4307:4529   */\n      swap3\n      swap2\n      pop\n      pop\n      jump\t// out\n        /* \"#utility.yul\":4535:4715   */\n    tag_60:\n        /* \"#utility.yul\":4583:4660   */\n      0x4e487b7100000000000000000000000000000000000000000000000000000000\n        /* \"#utility.yul\":4580:4581   */\n      0x00\n        /* \"#utility.yul\":4573:4661   */\n      mstore\n        /* \"#utility.yul\":4680:4684   */\n      0x32\n        /* \"#utility.yul\":4677:4678   */\n      0x04\n        /* \"#utility.yul\":4670:4685   */\n      mstore\n        /* \"#utility.yul\":4704:4708   */\n      0x24\n        /* \"#utility.yul\":4701:4702   */\n      0x00\n        /* \"#utility.yul\":4694:4709   */\n      revert\n        /* \"#utility.yul\":4721:4868   */\n    tag_117:\n        /* \"#utility.yul\":4822:4833   */\n      0x00\n        /* \"#utility.yul\":4859:4862   */\n      dup2\n        /* \"#utility.yul\":4844:4862   */\n      swap1\n      pop\n        /* \"#utility.yul\":4721:4868   */\n      swap3\n      swap2\n      pop\n      pop\n      jump\t// out\n        /* \"#utility.yul\":4874:4988   */\n    tag_118:\n      pop\n      jump\t// out\n        /* \"#utility.yul\":4994:5392   */\n    tag_119:\n        /* \"#utility.yul\":5153:5156   */\n      0x00\n        /* \"#utility.yul\":5174:5257   */\n      tag_182\n        /* \"#utility.yul\":5255:5256   */\n      0x00\n        /* \"#utility.yul\":5250:5253   */\n      dup4\n        /* \"#utility.yul\":5174:5257   */\n      tag_117\n      jump\t// in\n    tag_182:\n        /* \"#utility.yul\":5167:5257   */\n      swap2\n      pop\n        /* \"#utility.yul\":5266:5359   */\n      tag_183\n        /* \"#utility.yul\":5355:5358   */\n      dup3\n        /* \"#utility.yul\":5266:5359   */\n      tag_118\n      jump\t// in\n    tag_183:\n        /* \"#utility.yul\":5384:5385   */\n      0x00\n        /* \"#utility.yul\":5379:5382   */\n      dup3\n        /* \"#utility.yul\":5375:5386   */\n      add\n        /* \"#utility.yul\":5368:5386   */\n      swap1\n      pop\n        /* \"#utility.yul\":4994:5392   */\n      swap2\n      swap1\n      pop\n      jump\t// out\n        /* \"#utility.yul\":5398:5777   */\n    tag_63:\n        /* \"#utility.yul\":5582:5585   */\n      0x00\n        /* \"#utility.yul\":5604:5751   */\n      tag_185\n        /* \"#utility.yul\":5747:5750   */\n      dup3\n        /* \"#utility.yul\":5604:5751   */\n      tag_119\n      jump\t// in\n    tag_185:\n        /* \"#utility.yul\":5597:5751   */\n      swap2\n      pop\n        /* \"#utility.yul\":5768:5771   */\n      dup2\n        /* \"#utility.yul\":5761:5771   */\n      swap1\n      pop\n        /* \"#utility.yul\":5398:5777   */\n      swap2\n      swap1\n      pop\n      jump\t// out\n    stop\n\n    sub_0: assembly {\n            /* \"contracts/room.sol\":94:1130  contract Room {... */\n          mstore(0x40, 0x80)\n            /* \"contracts/room.sol\":324:414  constructor(address _admin) {... */\n          callvalue\n          dup1\n          iszero\n          tag_1\n          jumpi\n          0x00\n          dup1\n          revert\n        tag_1:\n          pop\n          mload(0x40)\n          sub(codesize, bytecodeSize)\n          dup1\n          bytecodeSize\n          dup4\n          codecopy\n          dup2\n          dup2\n          add\n          0x40\n          mstore\n          dup2\n          add\n          swap1\n          tag_2\n          swap2\n          swap1\n          tag_3\n          jump\t// in\n        tag_2:\n            /* \"contracts/room.sol\":371:377  _admin */\n          dup1\n            /* \"contracts/room.sol\":363:368  admin */\n          0x01\n          0x00\n            /* \"contracts/room.sol\":363:377  admin = _admin */\n          0x0100\n          exp\n          dup2\n          sload\n          dup2\n          0xffffffffffffffffffffffffffffffffffffffff\n          mul\n          not\n          and\n          swap1\n          dup4\n          0xffffffffffffffffffffffffffffffffffffffff\n          and\n          mul\n          or\n          swap1\n          sstore\n          pop\n            /* \"contracts/room.sol\":396:406  msg.sender */\n          caller\n            /* \"contracts/room.sol\":388:393  owner */\n          0x00\n          dup1\n            /* \"contracts/room.sol\":388:406  owner = msg.sender */\n          0x0100\n          exp\n          dup2\n          sload\n          dup2\n          0xffffffffffffffffffffffffffffffffffffffff\n          mul\n          not\n          and\n          swap1\n          dup4\n          0xffffffffffffffffffffffffffffffffffffffff\n          and\n          mul\n          or\n          swap1\n          sstore\n          pop\n            /* \"contracts/room.sol\":324:414  constructor(address _admin) {... */\n          pop\n            /* \"contracts/room.sol\":94:1130  contract Room {... */\n          jump(tag_6)\n            /* \"#utility.yul\":88:205   */\n        tag_8:\n            /* \"#utility.yul\":197:198   */\n          0x00\n            /* \"#utility.yul\":194:195   */\n          dup1\n            /* \"#utility.yul\":187:199   */\n          revert\n            /* \"#utility.yul\":334:460   */\n        tag_10:\n            /* \"#utility.yul\":371:378   */\n          0x00\n            /* \"#utility.yul\":411:453   */\n          0xffffffffffffffffffffffffffffffffffffffff\n            /* \"#utility.yul\":404:409   */\n          dup3\n            /* \"#utility.yul\":400:454   */\n          and\n            /* \"#utility.yul\":389:454   */\n          swap1\n          pop\n            /* \"#utility.yul\":334:460   */\n          swap2\n          swap1\n          pop\n          jump\t// out\n            /* \"#utility.yul\":466:562   */\n        tag_11:\n            /* \"#utility.yul\":503:510   */\n          0x00\n            /* \"#utility.yul\":532:556   */\n          tag_20\n            /* \"#utility.yul\":550:555   */\n          dup3\n            /* \"#utility.yul\":532:556   */\n          tag_10\n          jump\t// in\n        tag_20:\n            /* \"#utility.yul\":521:556   */\n          swap1\n          pop\n            /* \"#utility.yul\":466:562   */\n          swap2\n          swap1\n          pop\n          jump\t// out\n            /* \"#utility.yul\":568:690   */\n        tag_12:\n            /* \"#utility.yul\":641:665   */\n          tag_22\n            /* \"#utility.yul\":659:664   */\n          dup2\n            /* \"#utility.yul\":641:665   */\n          tag_11\n          jump\t// in\n        tag_22:\n            /* \"#utility.yul\":634:639   */\n          dup2\n            /* \"#utility.yul\":631:666   */\n          eq\n            /* \"#utility.yul\":621:684   */\n          tag_23\n          jumpi\n            /* \"#utility.yul\":680:681   */\n          0x00\n            /* \"#utility.yul\":677:678   */\n          dup1\n            /* \"#utility.yul\":670:682   */\n          revert\n            /* \"#utility.yul\":621:684   */\n        tag_23:\n            /* \"#utility.yul\":568:690   */\n          pop\n          jump\t// out\n            /* \"#utility.yul\":696:839   */\n        tag_13:\n            /* \"#utility.yul\":753:758   */\n          0x00\n            /* \"#utility.yul\":784:790   */\n          dup2\n            /* \"#utility.yul\":778:791   */\n          mload\n            /* \"#utility.yul\":769:791   */\n          swap1\n          pop\n            /* \"#utility.yul\":800:833   */\n          tag_25\n            /* \"#utility.yul\":827:832   */\n          dup2\n            /* \"#utility.yul\":800:833   */\n          tag_12\n          jump\t// in\n        tag_25:\n            /* \"#utility.yul\":696:839   */\n          swap3\n          swap2\n          pop\n          pop\n          jump\t// out\n            /* \"#utility.yul\":845:1196   */\n        tag_3:\n            /* \"#utility.yul\":915:921   */\n          0x00\n            /* \"#utility.yul\":964:966   */\n          0x20\n            /* \"#utility.yul\":952:961   */\n          dup3\n            /* \"#utility.yul\":943:950   */\n          dup5\n            /* \"#utility.yul\":939:962   */\n          sub\n            /* \"#utility.yul\":935:967   */\n          slt\n            /* \"#utility.yul\":932:1051   */\n          iszero\n          tag_27\n          jumpi\n            /* \"#utility.yul\":970:1049   */\n          tag_28\n          tag_8\n          jump\t// in\n        tag_28:\n            /* \"#utility.yul\":932:1051   */\n        tag_27:\n            /* \"#utility.yul\":1090:1091   */\n          0x00\n            /* \"#utility.yul\":1115:1179   */\n          tag_29\n            /* \"#utility.yul\":1171:1178   */\n          dup5\n            /* \"#utility.yul\":1162:1168   */\n          dup3\n            /* \"#utility.yul\":1151:1160   */\n          dup6\n            /* \"#utility.yul\":1147:1169   */\n          add\n            /* \"#utility.yul\":1115:1179   */\n          tag_13\n          jump\t// in\n        tag_29:\n            /* \"#utility.yul\":1105:1179   */\n          swap2\n          pop\n            /* \"#utility.yul\":1061:1189   */\n          pop\n            /* \"#utility.yul\":845:1196   */\n          swap3\n          swap2\n          pop\n          pop\n          jump\t// out\n            /* \"contracts/room.sol\":94:1130  contract Room {... */\n        tag_6:\n          dataSize(sub_0)\n          dup1\n          dataOffset(sub_0)\n          0x00\n          codecopy\n          0x00\n          return\n        stop\n\n        sub_0: assembly {\n                /* \"contracts/room.sol\":94:1130  contract Room {... */\n              mstore(0x40, 0x80)\n              jumpi(tag_1, lt(calldatasize, 0x04))\n              shr(0xe0, calldataload(0x00))\n              dup1\n              0x8da5cb5b\n              gt\n              tag_10\n              jumpi\n              dup1\n              0x8da5cb5b\n              eq\n              tag_6\n              jumpi\n              dup1\n              0x9a04f704\n              eq\n              tag_7\n              jumpi\n              dup1\n              0xc1cfb99a\n              eq\n              tag_8\n              jumpi\n              dup1\n              0xf851a440\n              eq\n              tag_9\n              jumpi\n              jump(tag_2)\n            tag_10:\n              dup1\n              0x16fc496c\n              eq\n              tag_3\n              jumpi\n              dup1\n              0x48db29ea\n              eq\n              tag_4\n              jumpi\n              dup1\n              0x54c7c612\n              eq\n              tag_5\n              jumpi\n              jump(tag_2)\n            tag_1:\n              jumpi(tag_2, calldatasize)\n                /* \"contracts/room.sol\":1086:1117  Received(msg.sender, msg.value) */\n              0x88a5966d370b9919b20f3e2c13ff65706f196a4e32cc2c12bf57088f88525874\n                /* \"contracts/room.sol\":1095:1105  msg.sender */\n              caller\n                /* \"contracts/room.sol\":1107:1116  msg.value */\n              callvalue\n                /* \"contracts/room.sol\":1086:1117  Received(msg.sender, msg.value) */\n              mload(0x40)\n              tag_13\n              swap3\n              swap2\n              swap1\n              tag_14\n              jump\t// in\n            tag_13:\n              mload(0x40)\n              dup1\n              swap2\n              sub\n              swap1\n              log1\n                /* \"contracts/room.sol\":94:1130  contract Room {... */\n              stop\n            tag_2:\n              0x00\n              dup1\n              revert\n                /* \"contracts/room.sol\":750:834  function get_guest() external view returns (address) {... */\n            tag_3:\n              callvalue\n              dup1\n              iszero\n              tag_15\n              jumpi\n              0x00\n              dup1\n              revert\n            tag_15:\n              pop\n              tag_16\n              tag_17\n              jump\t// in\n            tag_16:\n              mload(0x40)\n              tag_18\n              swap2\n              swap1\n              tag_19\n              jump\t// in\n            tag_18:\n              mload(0x40)\n              dup1\n              swap2\n              sub\n              swap1\n              return\n                /* \"contracts/room.sol\":422:540  function game_end(address winner) external onlyOwner{... */\n            tag_4:\n              callvalue\n              dup1\n              iszero\n              tag_20\n              jumpi\n              0x00\n              dup1\n              revert\n            tag_20:\n              pop\n              tag_21\n              0x04\n              dup1\n              calldatasize\n              sub\n              dup2\n              add\n              swap1\n              tag_22\n              swap2\n              swap1\n              tag_23\n              jump\t// in\n            tag_22:\n              tag_24\n              jump\t// in\n            tag_21:\n              stop\n                /* \"contracts/room.sol\":658:742  function get_admin() external view returns (address) {... */\n            tag_5:\n              callvalue\n              dup1\n              iszero\n              tag_25\n              jumpi\n              0x00\n              dup1\n              revert\n            tag_25:\n              pop\n              tag_26\n              tag_27\n              jump\t// in\n            tag_26:\n              mload(0x40)\n              tag_28\n              swap2\n              swap1\n              tag_19\n              jump\t// in\n            tag_28:\n              mload(0x40)\n              dup1\n              swap2\n              sub\n              swap1\n              return\n                /* \"contracts/room.sol\":115:135  address public owner */\n            tag_6:\n              callvalue\n              dup1\n              iszero\n              tag_29\n              jumpi\n              0x00\n              dup1\n              revert\n            tag_29:\n              pop\n              tag_30\n              tag_31\n              jump\t// in\n            tag_30:\n              mload(0x40)\n              tag_32\n              swap2\n              swap1\n              tag_19\n              jump\t// in\n            tag_32:\n              mload(0x40)\n              dup1\n              swap2\n              sub\n              swap1\n              return\n                /* \"contracts/room.sol\":169:189  address public guest */\n            tag_7:\n              callvalue\n              dup1\n              iszero\n              tag_33\n              jumpi\n              0x00\n              dup1\n              revert\n            tag_33:\n              pop\n              tag_34\n              tag_35\n              jump\t// in\n            tag_34:\n              mload(0x40)\n              tag_36\n              swap2\n              swap1\n              tag_19\n              jump\t// in\n            tag_36:\n              mload(0x40)\n              dup1\n              swap2\n              sub\n              swap1\n              return\n                /* \"contracts/room.sol\":548:650  function get_balance() external view returns (uint256) {... */\n            tag_8:\n              callvalue\n              dup1\n              iszero\n              tag_37\n              jumpi\n              0x00\n              dup1\n              revert\n            tag_37:\n              pop\n              tag_38\n              tag_39\n              jump\t// in\n            tag_38:\n              mload(0x40)\n              tag_40\n              swap2\n              swap1\n              tag_41\n              jump\t// in\n            tag_40:\n              mload(0x40)\n              dup1\n              swap2\n              sub\n              swap1\n              return\n                /* \"contracts/room.sol\":142:162  address public admin */\n            tag_9:\n              callvalue\n              dup1\n              iszero\n              tag_42\n              jumpi\n              0x00\n              dup1\n              revert\n            tag_42:\n              pop\n              tag_43\n              tag_44\n              jump\t// in\n            tag_43:\n              mload(0x40)\n              tag_45\n              swap2\n              swap1\n              tag_19\n              jump\t// in\n            tag_45:\n              mload(0x40)\n              dup1\n              swap2\n              sub\n              swap1\n              return\n                /* \"contracts/room.sol\":750:834  function get_guest() external view returns (address) {... */\n            tag_17:\n                /* \"contracts/room.sol\":794:801  address */\n              0x00\n                /* \"contracts/room.sol\":821:826  guest */\n              0x02\n              0x00\n              swap1\n              sload\n              swap1\n              0x0100\n              exp\n              swap1\n              div\n              0xffffffffffffffffffffffffffffffffffffffff\n              and\n                /* \"contracts/room.sol\":814:826  return guest */\n              swap1\n              pop\n                /* \"contracts/room.sol\":750:834  function get_guest() external view returns (address) {... */\n              swap1\n              jump\t// out\n                /* \"contracts/room.sol\":422:540  function game_end(address winner) external onlyOwner{... */\n            tag_24:\n                /* \"contracts/room.sol\":252:257  owner */\n              0x00\n              dup1\n              sload\n              swap1\n              0x0100\n              exp\n              swap1\n              div\n              0xffffffffffffffffffffffffffffffffffffffff\n              and\n                /* \"contracts/room.sol\":238:257  msg.sender == owner */\n              0xffffffffffffffffffffffffffffffffffffffff\n              and\n                /* \"contracts/room.sol\":238:248  msg.sender */\n              caller\n                /* \"contracts/room.sol\":238:257  msg.sender == owner */\n              0xffffffffffffffffffffffffffffffffffffffff\n              and\n              eq\n                /* \"contracts/room.sol\":230:296  require(msg.sender == owner, \"Only owner can call this function.\") */\n              tag_48\n              jumpi\n              mload(0x40)\n              0x08c379a000000000000000000000000000000000000000000000000000000000\n              dup2\n              mstore\n              0x04\n              add\n              tag_49\n              swap1\n              tag_50\n              jump\t// in\n            tag_49:\n              mload(0x40)\n              dup1\n              swap2\n              sub\n              swap1\n              revert\n            tag_48:\n                /* \"contracts/room.sol\":493:499  winner */\n              dup1\n                /* \"contracts/room.sol\":485:509  payable(winner).transfer */\n              0xffffffffffffffffffffffffffffffffffffffff\n              and\n                /* \"contracts/room.sol\":485:532  payable(winner).transfer(address(this).balance) */\n              0x08fc\n                /* \"contracts/room.sol\":510:531  address(this).balance */\n              selfbalance\n                /* \"contracts/room.sol\":485:532  payable(winner).transfer(address(this).balance) */\n              swap1\n              dup2\n              iszero\n              mul\n              swap1\n              mload(0x40)\n              0x00\n              mload(0x40)\n              dup1\n              dup4\n              sub\n              dup2\n              dup6\n              dup9\n              dup9\n              call\n              swap4\n              pop\n              pop\n              pop\n              pop\n              iszero\n              dup1\n              iszero\n              tag_53\n              jumpi\n              returndatasize\n              0x00\n              dup1\n              returndatacopy\n              revert(0x00, returndatasize)\n            tag_53:\n              pop\n                /* \"contracts/room.sol\":422:540  function game_end(address winner) external onlyOwner{... */\n              pop\n              jump\t// out\n                /* \"contracts/room.sol\":658:742  function get_admin() external view returns (address) {... */\n            tag_27:\n                /* \"contracts/room.sol\":702:709  address */\n              0x00\n                /* \"contracts/room.sol\":729:734  admin */\n              0x01\n              0x00\n              swap1\n              sload\n              swap1\n              0x0100\n              exp\n              swap1\n              div\n              0xffffffffffffffffffffffffffffffffffffffff\n              and\n                /* \"contracts/room.sol\":722:734  return admin */\n              swap1\n              pop\n                /* \"contracts/room.sol\":658:742  function get_admin() external view returns (address) {... */\n              swap1\n              jump\t// out\n                /* \"contracts/room.sol\":115:135  address public owner */\n            tag_31:\n              0x00\n              dup1\n              sload\n              swap1\n              0x0100\n              exp\n              swap1\n              div\n              0xffffffffffffffffffffffffffffffffffffffff\n              and\n              dup2\n              jump\t// out\n                /* \"contracts/room.sol\":169:189  address public guest */\n            tag_35:\n              0x02\n              0x00\n              swap1\n              sload\n              swap1\n              0x0100\n              exp\n              swap1\n              div\n              0xffffffffffffffffffffffffffffffffffffffff\n              and\n              dup2\n              jump\t// out\n                /* \"contracts/room.sol\":548:650  function get_balance() external view returns (uint256) {... */\n            tag_39:\n                /* \"contracts/room.sol\":594:601  uint256 */\n              0x00\n                /* \"contracts/room.sol\":621:642  address(this).balance */\n              selfbalance\n                /* \"contracts/room.sol\":614:642  return address(this).balance */\n              swap1\n              pop\n                /* \"contracts/room.sol\":548:650  function get_balance() external view returns (uint256) {... */\n              swap1\n              jump\t// out\n                /* \"contracts/room.sol\":142:162  address public admin */\n            tag_44:\n              0x01\n              0x00\n              swap1\n              sload\n              swap1\n              0x0100\n              exp\n              swap1\n              div\n              0xffffffffffffffffffffffffffffffffffffffff\n              and\n              dup2\n              jump\t// out\n                /* \"#utility.yul\":7:133   */\n            tag_56:\n                /* \"#utility.yul\":44:51   */\n              0x00\n                /* \"#utility.yul\":84:126   */\n              0xffffffffffffffffffffffffffffffffffffffff\n                /* \"#utility.yul\":77:82   */\n              dup3\n                /* \"#utility.yul\":73:127   */\n              and\n                /* \"#utility.yul\":62:127   */\n              swap1\n              pop\n                /* \"#utility.yul\":7:133   */\n              swap2\n              swap1\n              pop\n              jump\t// out\n                /* \"#utility.yul\":139:235   */\n            tag_57:\n                /* \"#utility.yul\":176:183   */\n              0x00\n                /* \"#utility.yul\":205:229   */\n              tag_72\n                /* \"#utility.yul\":223:228   */\n              dup3\n                /* \"#utility.yul\":205:229   */\n              tag_56\n              jump\t// in\n            tag_72:\n                /* \"#utility.yul\":194:229   */\n              swap1\n              pop\n                /* \"#utility.yul\":139:235   */\n              swap2\n              swap1\n              pop\n              jump\t// out\n                /* \"#utility.yul\":241:359   */\n            tag_58:\n                /* \"#utility.yul\":328:352   */\n              tag_74\n                /* \"#utility.yul\":346:351   */\n              dup2\n                /* \"#utility.yul\":328:352   */\n              tag_57\n              jump\t// in\n            tag_74:\n                /* \"#utility.yul\":323:326   */\n              dup3\n                /* \"#utility.yul\":316:353   */\n              mstore\n                /* \"#utility.yul\":241:359   */\n              pop\n              pop\n              jump\t// out\n                /* \"#utility.yul\":365:442   */\n            tag_59:\n                /* \"#utility.yul\":402:409   */\n              0x00\n                /* \"#utility.yul\":431:436   */\n              dup2\n                /* \"#utility.yul\":420:436   */\n              swap1\n              pop\n                /* \"#utility.yul\":365:442   */\n              swap2\n              swap1\n              pop\n              jump\t// out\n                /* \"#utility.yul\":448:566   */\n            tag_60:\n                /* \"#utility.yul\":535:559   */\n              tag_77\n                /* \"#utility.yul\":553:558   */\n              dup2\n                /* \"#utility.yul\":535:559   */\n              tag_59\n              jump\t// in\n            tag_77:\n                /* \"#utility.yul\":530:533   */\n              dup3\n                /* \"#utility.yul\":523:560   */\n              mstore\n                /* \"#utility.yul\":448:566   */\n              pop\n              pop\n              jump\t// out\n                /* \"#utility.yul\":572:904   */\n            tag_14:\n                /* \"#utility.yul\":693:697   */\n              0x00\n                /* \"#utility.yul\":731:733   */\n              0x40\n                /* \"#utility.yul\":720:729   */\n              dup3\n                /* \"#utility.yul\":716:734   */\n              add\n                /* \"#utility.yul\":708:734   */\n              swap1\n              pop\n                /* \"#utility.yul\":744:815   */\n              tag_79\n                /* \"#utility.yul\":812:813   */\n              0x00\n                /* \"#utility.yul\":801:810   */\n              dup4\n                /* \"#utility.yul\":797:814   */\n              add\n                /* \"#utility.yul\":788:794   */\n              dup6\n                /* \"#utility.yul\":744:815   */\n              tag_58\n              jump\t// in\n            tag_79:\n                /* \"#utility.yul\":825:897   */\n              tag_80\n                /* \"#utility.yul\":893:895   */\n              0x20\n                /* \"#utility.yul\":882:891   */\n              dup4\n                /* \"#utility.yul\":878:896   */\n              add\n                /* \"#utility.yul\":869:875   */\n              dup5\n                /* \"#utility.yul\":825:897   */\n              tag_60\n              jump\t// in\n            tag_80:\n                /* \"#utility.yul\":572:904   */\n              swap4\n              swap3\n              pop\n              pop\n              pop\n              jump\t// out\n                /* \"#utility.yul\":910:1132   */\n            tag_19:\n                /* \"#utility.yul\":1003:1007   */\n              0x00\n                /* \"#utility.yul\":1041:1043   */\n              0x20\n                /* \"#utility.yul\":1030:1039   */\n              dup3\n                /* \"#utility.yul\":1026:1044   */\n              add\n                /* \"#utility.yul\":1018:1044   */\n              swap1\n              pop\n                /* \"#utility.yul\":1054:1125   */\n              tag_82\n                /* \"#utility.yul\":1122:1123   */\n              0x00\n                /* \"#utility.yul\":1111:1120   */\n              dup4\n                /* \"#utility.yul\":1107:1124   */\n              add\n                /* \"#utility.yul\":1098:1104   */\n              dup5\n                /* \"#utility.yul\":1054:1125   */\n              tag_58\n              jump\t// in\n            tag_82:\n                /* \"#utility.yul\":910:1132   */\n              swap3\n              swap2\n              pop\n              pop\n              jump\t// out\n                /* \"#utility.yul\":1219:1336   */\n            tag_62:\n                /* \"#utility.yul\":1328:1329   */\n              0x00\n                /* \"#utility.yul\":1325:1326   */\n              dup1\n                /* \"#utility.yul\":1318:1330   */\n              revert\n                /* \"#utility.yul\":1465:1587   */\n            tag_64:\n                /* \"#utility.yul\":1538:1562   */\n              tag_87\n                /* \"#utility.yul\":1556:1561   */\n              dup2\n                /* \"#utility.yul\":1538:1562   */\n              tag_57\n              jump\t// in\n            tag_87:\n                /* \"#utility.yul\":1531:1536   */\n              dup2\n                /* \"#utility.yul\":1528:1563   */\n              eq\n                /* \"#utility.yul\":1518:1581   */\n              tag_88\n              jumpi\n                /* \"#utility.yul\":1577:1578   */\n              0x00\n                /* \"#utility.yul\":1574:1575   */\n              dup1\n                /* \"#utility.yul\":1567:1579   */\n              revert\n                /* \"#utility.yul\":1518:1581   */\n            tag_88:\n                /* \"#utility.yul\":1465:1587   */\n              pop\n              jump\t// out\n                /* \"#utility.yul\":1593:1732   */\n            tag_65:\n                /* \"#utility.yul\":1639:1644   */\n              0x00\n                /* \"#utility.yul\":1677:1683   */\n              dup2\n                /* \"#utility.yul\":1664:1684   */\n              calldataload\n                /* \"#utility.yul\":1655:1684   */\n              swap1\n              pop\n                /* \"#utility.yul\":1693:1726   */\n              tag_90\n                /* \"#utility.yul\":1720:1725   */\n              dup2\n                /* \"#utility.yul\":1693:1726   */\n              tag_64\n              jump\t// in\n            tag_90:\n                /* \"#utility.yul\":1593:1732   */\n              swap3\n              swap2\n              pop\n              pop\n              jump\t// out\n                /* \"#utility.yul\":1738:2067   */\n            tag_23:\n                /* \"#utility.yul\":1797:1803   */\n              0x00\n                /* \"#utility.yul\":1846:1848   */\n              0x20\n                /* \"#utility.yul\":1834:1843   */\n              dup3\n                /* \"#utility.yul\":1825:1832   */\n              dup5\n                /* \"#utility.yul\":1821:1844   */\n              sub\n                /* \"#utility.yul\":1817:1849   */\n              slt\n                /* \"#utility.yul\":1814:1933   */\n              iszero\n              tag_92\n              jumpi\n                /* \"#utility.yul\":1852:1931   */\n              tag_93\n              tag_62\n              jump\t// in\n            tag_93:\n                /* \"#utility.yul\":1814:1933   */\n            tag_92:\n                /* \"#utility.yul\":1972:1973   */\n              0x00\n                /* \"#utility.yul\":1997:2050   */\n              tag_94\n                /* \"#utility.yul\":2042:2049   */\n              dup5\n                /* \"#utility.yul\":2033:2039   */\n              dup3\n                /* \"#utility.yul\":2022:2031   */\n              dup6\n                /* \"#utility.yul\":2018:2040   */\n              add\n                /* \"#utility.yul\":1997:2050   */\n              tag_65\n              jump\t// in\n            tag_94:\n                /* \"#utility.yul\":1987:2050   */\n              swap2\n              pop\n                /* \"#utility.yul\":1943:2060   */\n              pop\n                /* \"#utility.yul\":1738:2067   */\n              swap3\n              swap2\n              pop\n              pop\n              jump\t// out\n                /* \"#utility.yul\":2073:2295   */\n            tag_41:\n                /* \"#utility.yul\":2166:2170   */\n              0x00\n                /* \"#utility.yul\":2204:2206   */\n              0x20\n                /* \"#utility.yul\":2193:2202   */\n              dup3\n                /* \"#utility.yul\":2189:2207   */\n              add\n                /* \"#utility.yul\":2181:2207   */\n              swap1\n              pop\n                /* \"#utility.yul\":2217:2288   */\n              tag_96\n                /* \"#utility.yul\":2285:2286   */\n              0x00\n                /* \"#utility.yul\":2274:2283   */\n              dup4\n                /* \"#utility.yul\":2270:2287   */\n              add\n                /* \"#utility.yul\":2261:2267   */\n              dup5\n                /* \"#utility.yul\":2217:2288   */\n              tag_60\n              jump\t// in\n            tag_96:\n                /* \"#utility.yul\":2073:2295   */\n              swap3\n              swap2\n              pop\n              pop\n              jump\t// out\n                /* \"#utility.yul\":2301:2470   */\n            tag_66:\n                /* \"#utility.yul\":2385:2396   */\n              0x00\n                /* \"#utility.yul\":2419:2425   */\n              dup3\n                /* \"#utility.yul\":2414:2417   */\n              dup3\n                /* \"#utility.yul\":2407:2426   */\n              mstore\n                /* \"#utility.yul\":2459:2463   */\n              0x20\n                /* \"#utility.yul\":2454:2457   */\n              dup3\n                /* \"#utility.yul\":2450:2464   */\n              add\n                /* \"#utility.yul\":2435:2464   */\n              swap1\n              pop\n                /* \"#utility.yul\":2301:2470   */\n              swap3\n              swap2\n              pop\n              pop\n              jump\t// out\n                /* \"#utility.yul\":2476:2697   */\n            tag_67:\n                /* \"#utility.yul\":2616:2650   */\n              0x4f6e6c79206f776e65722063616e2063616c6c20746869732066756e6374696f\n                /* \"#utility.yul\":2612:2613   */\n              0x00\n                /* \"#utility.yul\":2604:2610   */\n              dup3\n                /* \"#utility.yul\":2600:2614   */\n              add\n                /* \"#utility.yul\":2593:2651   */\n              mstore\n                /* \"#utility.yul\":2685:2689   */\n              0x6e2e000000000000000000000000000000000000000000000000000000000000\n                /* \"#utility.yul\":2680:2682   */\n              0x20\n                /* \"#utility.yul\":2672:2678   */\n              dup3\n                /* \"#utility.yul\":2668:2683   */\n              add\n                /* \"#utility.yul\":2661:2690   */\n              mstore\n                /* \"#utility.yul\":2476:2697   */\n              pop\n              jump\t// out\n                /* \"#utility.yul\":2703:3069   */\n            tag_68:\n                /* \"#utility.yul\":2845:2848   */\n              0x00\n                /* \"#utility.yul\":2866:2933   */\n              tag_100\n                /* \"#utility.yul\":2930:2932   */\n              0x22\n                /* \"#utility.yul\":2925:2928   */\n              dup4\n                /* \"#utility.yul\":2866:2933   */\n              tag_66\n              jump\t// in\n            tag_100:\n                /* \"#utility.yul\":2859:2933   */\n              swap2\n              pop\n                /* \"#utility.yul\":2942:3035   */\n              tag_101\n                /* \"#utility.yul\":3031:3034   */\n              dup3\n                /* \"#utility.yul\":2942:3035   */\n              tag_67\n              jump\t// in\n            tag_101:\n                /* \"#utility.yul\":3060:3062   */\n              0x40\n                /* \"#utility.yul\":3055:3058   */\n              dup3\n                /* \"#utility.yul\":3051:3063   */\n              add\n                /* \"#utility.yul\":3044:3063   */\n              swap1\n              pop\n                /* \"#utility.yul\":2703:3069   */\n              swap2\n              swap1\n              pop\n              jump\t// out\n                /* \"#utility.yul\":3075:3494   */\n            tag_50:\n                /* \"#utility.yul\":3241:3245   */\n              0x00\n                /* \"#utility.yul\":3279:3281   */\n              0x20\n                /* \"#utility.yul\":3268:3277   */\n              dup3\n                /* \"#utility.yul\":3264:3282   */\n              add\n                /* \"#utility.yul\":3256:3282   */\n              swap1\n              pop\n                /* \"#utility.yul\":3328:3337   */\n              dup2\n                /* \"#utility.yul\":3322:3326   */\n              dup2\n                /* \"#utility.yul\":3318:3338   */\n              sub\n                /* \"#utility.yul\":3314:3315   */\n              0x00\n                /* \"#utility.yul\":3303:3312   */\n              dup4\n                /* \"#utility.yul\":3299:3316   */\n              add\n                /* \"#utility.yul\":3292:3339   */\n              mstore\n                /* \"#utility.yul\":3356:3487   */\n              tag_103\n                /* \"#utility.yul\":3482:3486   */\n              dup2\n                /* \"#utility.yul\":3356:3487   */\n              tag_68\n              jump\t// in\n            tag_103:\n                /* \"#utility.yul\":3348:3487   */\n              swap1\n              pop\n                /* \"#utility.yul\":3075:3494   */\n              swap2\n              swap1\n              pop\n              jump\t// out\n\n            auxdata: 0xa2646970667358221220441799a579d5c4506f7dd9391f0f42281f25a79df6eb597a26dec4b7e74f490c64736f6c63430008160033\n        }\n    }\n\n    auxdata: 0xa2646970667358221220d27483b084a5ec39a0da78b4213ebca8c3dcb31400a523a47b1b62e07290ffeb64736f6c63430008160033\n}\n",
				"bytecode": {
					"linkReferences": {},
					"object": "6080604052335f806101000a81548173ffffffffffffffffffffffffffffffffffffffff021916908373ffffffffffffffffffffffffffffffffffffffff1602179055506110c3806100505f395ff3fe608060405260043610610085575f3560e01c8063868a111911610058578063868a1119146101295780638da5cb5b14610165578063aac7a8141461018f578063c1cfb99a146101b7578063f340fa01146101e157610085565b80630b93381b146100895780631989d3dc146100b35780631d84d05c146100ef57806342909a9e1461010b575b5f80fd5b348015610094575f80fd5b5061009d610209565b6040516100aa919061076b565b60405180910390f35b3480156100be575f80fd5b506100d960048036038101906100d491906107bb565b61021b565b6040516100e69190610825565b60405180910390f35b61010960048036038101906101049190610868565b610256565b005b61011361036f565b6040516101209190610825565b60405180910390f35b348015610134575f80fd5b5061014f600480360381019061014a91906108df565b610546565b60405161015c9190610825565b60405180910390f35b348015610170575f80fd5b50610179610587565b6040516101869190610825565b60405180910390f35b34801561019a575f80fd5b506101b560048036038101906101b0919061091d565b6105aa565b005b3480156101c2575f80fd5b506101cb610619565b6040516101d8919061096a565b60405180910390f35b3480156101ec575f80fd5b5061020760048036038101906102029190610868565b610620565b005b60035f9054906101000a900460ff1681565b6002818154811061022a575f80fd5b905f5260205f20015f915054906101000a900473ffffffffffffffffffffffffffffffffffffffff1681565b5f8190503360015f8373ffffffffffffffffffffffffffffffffffffffff1673ffffffffffffffffffffffffffffffffffffffff1681526020019081526020015f206001600281106102ab576102aa610983565b5b015f6101000a81548173ffffffffffffffffffffffffffffffffffffffff021916908373ffffffffffffffffffffffffffffffffffffffff1602179055505f8173ffffffffffffffffffffffffffffffffffffffff163460405161030e906109dd565b5f6040518083038185875af1925050503d805f8114610348576040519150601f19603f3d011682016040523d82523d5f602084013e61034d565b606091505b505090508060035f6101000a81548160ff021916908315150217905550505050565b5f803360405161037e906106ad565b6103889190610825565b604051809103905ff0801580156103a1573d5f803e3d5ffd5b50905060405180604001604052803373ffffffffffffffffffffffffffffffffffffffff1673ffffffffffffffffffffffffffffffffffffffff1681526020015f73ffffffffffffffffffffffffffffffffffffffff1673ffffffffffffffffffffffffffffffffffffffff1681525060015f8373ffffffffffffffffffffffffffffffffffffffff1673ffffffffffffffffffffffffffffffffffffffff1681526020019081526020015f2090600261045c9291906106ba565b50600281908060018154018082558091505060019003905f5260205f20015f9091909190916101000a81548173ffffffffffffffffffffffffffffffffffffffff021916908373ffffffffffffffffffffffffffffffffffffffff1602179055505f8173ffffffffffffffffffffffffffffffffffffffff16346040516104e2906109dd565b5f6040518083038185875af1925050503d805f811461051c576040519150601f19603f3d011682016040523d82523d5f602084013e610521565b606091505b505090508060035f6101000a81548160ff021916908315150217905550819250505090565b6001602052815f5260405f20816002811061055f575f80fd5b015f915091509054906101000a900473ffffffffffffffffffffffffffffffffffffffff1681565b5f8054906101000a900473ffffffffffffffffffffffffffffffffffffffff1681565b5f8290508073ffffffffffffffffffffffffffffffffffffffff166348db29ea836040518263ffffffff1660e01b81526004016105e79190610825565b5f604051808303815f87803b1580156105fe575f80fd5b505af1158015610610573d5f803e3d5ffd5b50505050505050565b5f47905090565b5f8173ffffffffffffffffffffffffffffffffffffffff16670de0b6b3a764000060405161064d906109dd565b5f6040518083038185875af1925050503d805f8114610687576040519150601f19603f3d011682016040523d82523d5f602084013e61068c565b606091505b505090508060035f6101000a81548160ff0219169083151502179055505050565b61069c806109f283390190565b8260028101928215610725579160200282015b82811115610724578251825f6101000a81548173ffffffffffffffffffffffffffffffffffffffff021916908373ffffffffffffffffffffffffffffffffffffffff160217905550916020019190600101906106cd565b5b5090506107329190610736565b5090565b5b8082111561074d575f815f905550600101610737565b5090565b5f8115159050919050565b61076581610751565b82525050565b5f60208201905061077e5f83018461075c565b92915050565b5f80fd5b5f819050919050565b61079a81610788565b81146107a4575f80fd5b50565b5f813590506107b581610791565b92915050565b5f602082840312156107d0576107cf610784565b5b5f6107dd848285016107a7565b91505092915050565b5f73ffffffffffffffffffffffffffffffffffffffff82169050919050565b5f61080f826107e6565b9050919050565b61081f81610805565b82525050565b5f6020820190506108385f830184610816565b92915050565b61084781610805565b8114610851575f80fd5b50565b5f813590506108628161083e565b92915050565b5f6020828403121561087d5761087c610784565b5b5f61088a84828501610854565b91505092915050565b5f61089d826107e6565b9050919050565b5f6108ae82610893565b9050919050565b6108be816108a4565b81146108c8575f80fd5b50565b5f813590506108d9816108b5565b92915050565b5f80604083850312156108f5576108f4610784565b5b5f610902858286016108cb565b9250506020610913858286016107a7565b9150509250929050565b5f806040838503121561093357610932610784565b5b5f61094085828601610854565b925050602061095185828601610854565b9150509250929050565b61096481610788565b82525050565b5f60208201905061097d5f83018461095b565b92915050565b7f4e487b71000000000000000000000000000000000000000000000000000000005f52603260045260245ffd5b5f81905092915050565b50565b5f6109c85f836109b0565b91506109d3826109ba565b5f82019050919050565b5f6109e7826109bd565b915081905091905056fe608060405234801561000f575f80fd5b5060405161069c38038061069c83398181016040528101906100319190610114565b8060015f6101000a81548173ffffffffffffffffffffffffffffffffffffffff021916908373ffffffffffffffffffffffffffffffffffffffff160217905550335f806101000a81548173ffffffffffffffffffffffffffffffffffffffff021916908373ffffffffffffffffffffffffffffffffffffffff1602179055505061013f565b5f80fd5b5f73ffffffffffffffffffffffffffffffffffffffff82169050919050565b5f6100e3826100ba565b9050919050565b6100f3816100d9565b81146100fd575f80fd5b50565b5f8151905061010e816100ea565b92915050565b5f60208284031215610129576101286100b6565b5b5f61013684828501610100565b91505092915050565b6105508061014c5f395ff3fe608060405260043610610073575f3560e01c80638da5cb5b1161004d5780638da5cb5b146101335780639a04f7041461015d578063c1cfb99a14610187578063f851a440146101b1576100b3565b806316fc496c146100b757806348db29ea146100e157806354c7c61214610109576100b3565b366100b3577f88a5966d370b9919b20f3e2c13ff65706f196a4e32cc2c12bf57088f8852587433346040516100a99291906103ca565b60405180910390a1005b5f80fd5b3480156100c2575f80fd5b506100cb6101db565b6040516100d891906103f1565b60405180910390f35b3480156100ec575f80fd5b5061010760048036038101906101029190610438565b610203565b005b348015610114575f80fd5b5061011d6102d7565b60405161012a91906103f1565b60405180910390f35b34801561013e575f80fd5b506101476102ff565b60405161015491906103f1565b60405180910390f35b348015610168575f80fd5b50610171610322565b60405161017e91906103f1565b60405180910390f35b348015610192575f80fd5b5061019b610347565b6040516101a89190610463565b60405180910390f35b3480156101bc575f80fd5b506101c561034e565b6040516101d291906103f1565b60405180910390f35b5f60025f9054906101000a900473ffffffffffffffffffffffffffffffffffffffff16905090565b5f8054906101000a900473ffffffffffffffffffffffffffffffffffffffff1673ffffffffffffffffffffffffffffffffffffffff163373ffffffffffffffffffffffffffffffffffffffff1614610290576040517f08c379a0000000000000000000000000000000000000000000000000000000008152600401610287906104fc565b60405180910390fd5b8073ffffffffffffffffffffffffffffffffffffffff166108fc4790811502906040515f60405180830381858888f193505050501580156102d3573d5f803e3d5ffd5b5050565b5f60015f9054906101000a900473ffffffffffffffffffffffffffffffffffffffff16905090565b5f8054906101000a900473ffffffffffffffffffffffffffffffffffffffff1681565b60025f9054906101000a900473ffffffffffffffffffffffffffffffffffffffff1681565b5f47905090565b60015f9054906101000a900473ffffffffffffffffffffffffffffffffffffffff1681565b5f73ffffffffffffffffffffffffffffffffffffffff82169050919050565b5f61039c82610373565b9050919050565b6103ac81610392565b82525050565b5f819050919050565b6103c4816103b2565b82525050565b5f6040820190506103dd5f8301856103a3565b6103ea60208301846103bb565b9392505050565b5f6020820190506104045f8301846103a3565b92915050565b5f80fd5b61041781610392565b8114610421575f80fd5b50565b5f813590506104328161040e565b92915050565b5f6020828403121561044d5761044c61040a565b5b5f61045a84828501610424565b91505092915050565b5f6020820190506104765f8301846103bb565b92915050565b5f82825260208201905092915050565b7f4f6e6c79206f776e65722063616e2063616c6c20746869732066756e6374696f5f8201527f6e2e000000000000000000000000000000000000000000000000000000000000602082015250565b5f6104e660228361047c565b91506104f18261048c565b604082019050919050565b5f6020820190508181035f830152610513816104da565b905091905056fea2646970667358221220441799a579d5c4506f7dd9391f0f42281f25a79df6eb597a26dec4b7e74f490c64736f6c63430008160033a2646970667358221220d27483b084a5ec39a0da78b4213ebca8c3dcb31400a523a47b1b62e07290ffeb64736f6c63430008160033",
					"opcodes": "PUSH1 0x80 PUSH1 0x40 MSTORE CALLER PUSH0 DUP1 PUSH2 0x100 EXP DUP2 SLOAD DUP2 PUSH20 0xFFFFFFFFFFFFFFFFFFFFFFFFFFFFFFFFFFFFFFFF MUL NOT AND SWAP1 DUP4 PUSH20 0xFFFFFFFFFFFFFFFFFFFFFFFFFFFFFFFFFFFFFFFF AND MUL OR SWAP1 SSTORE POP PUSH2 0x10C3 DUP1 PUSH2 0x50 PUSH0 CODECOPY PUSH0 RETURN INVALID PUSH1 0x80 PUSH1 0x40 MSTORE PUSH1 0x4 CALLDATASIZE LT PUSH2 0x85 JUMPI PUSH0 CALLDATALOAD PUSH1 0xE0 SHR DUP1 PUSH4 0x868A1119 GT PUSH2 0x58 JUMPI DUP1 PUSH4 0x868A1119 EQ PUSH2 0x129 JUMPI DUP1 PUSH4 0x8DA5CB5B EQ PUSH2 0x165 JUMPI DUP1 PUSH4 0xAAC7A814 EQ PUSH2 0x18F JUMPI DUP1 PUSH4 0xC1CFB99A EQ PUSH2 0x1B7 JUMPI DUP1 PUSH4 0xF340FA01 EQ PUSH2 0x1E1 JUMPI PUSH2 0x85 JUMP JUMPDEST DUP1 PUSH4 0xB93381B EQ PUSH2 0x89 JUMPI DUP1 PUSH4 0x1989D3DC EQ PUSH2 0xB3 JUMPI DUP1 PUSH4 0x1D84D05C EQ PUSH2 0xEF JUMPI DUP1 PUSH4 0x42909A9E EQ PUSH2 0x10B JUMPI JUMPDEST PUSH0 DUP1 REVERT JUMPDEST CALLVALUE DUP1 ISZERO PUSH2 0x94 JUMPI PUSH0 DUP1 REVERT JUMPDEST POP PUSH2 0x9D PUSH2 0x209 JUMP JUMPDEST PUSH1 0x40 MLOAD PUSH2 0xAA SWAP2 SWAP1 PUSH2 0x76B JUMP JUMPDEST PUSH1 0x40 MLOAD DUP1 SWAP2 SUB SWAP1 RETURN JUMPDEST CALLVALUE DUP1 ISZERO PUSH2 0xBE JUMPI PUSH0 DUP1 REVERT JUMPDEST POP PUSH2 0xD9 PUSH1 0x4 DUP1 CALLDATASIZE SUB DUP2 ADD SWAP1 PUSH2 0xD4 SWAP2 SWAP1 PUSH2 0x7BB JUMP JUMPDEST PUSH2 0x21B JUMP JUMPDEST PUSH1 0x40 MLOAD PUSH2 0xE6 SWAP2 SWAP1 PUSH2 0x825 JUMP JUMPDEST PUSH1 0x40 MLOAD DUP1 SWAP2 SUB SWAP1 RETURN JUMPDEST PUSH2 0x109 PUSH1 0x4 DUP1 CALLDATASIZE SUB DUP2 ADD SWAP1 PUSH2 0x104 SWAP2 SWAP1 PUSH2 0x868 JUMP JUMPDEST PUSH2 0x256 JUMP JUMPDEST STOP JUMPDEST PUSH2 0x113 PUSH2 0x36F JUMP JUMPDEST PUSH1 0x40 MLOAD PUSH2 0x120 SWAP2 SWAP1 PUSH2 0x825 JUMP JUMPDEST PUSH1 0x40 MLOAD DUP1 SWAP2 SUB SWAP1 RETURN JUMPDEST CALLVALUE DUP1 ISZERO PUSH2 0x134 JUMPI PUSH0 DUP1 REVERT JUMPDEST POP PUSH2 0x14F PUSH1 0x4 DUP1 CALLDATASIZE SUB DUP2 ADD SWAP1 PUSH2 0x14A SWAP2 SWAP1 PUSH2 0x8DF JUMP JUMPDEST PUSH2 0x546 JUMP JUMPDEST PUSH1 0x40 MLOAD PUSH2 0x15C SWAP2 SWAP1 PUSH2 0x825 JUMP JUMPDEST PUSH1 0x40 MLOAD DUP1 SWAP2 SUB SWAP1 RETURN JUMPDEST CALLVALUE DUP1 ISZERO PUSH2 0x170 JUMPI PUSH0 DUP1 REVERT JUMPDEST POP PUSH2 0x179 PUSH2 0x587 JUMP JUMPDEST PUSH1 0x40 MLOAD PUSH2 0x186 SWAP2 SWAP1 PUSH2 0x825 JUMP JUMPDEST PUSH1 0x40 MLOAD DUP1 SWAP2 SUB SWAP1 RETURN JUMPDEST CALLVALUE DUP1 ISZERO PUSH2 0x19A JUMPI PUSH0 DUP1 REVERT JUMPDEST POP PUSH2 0x1B5 PUSH1 0x4 DUP1 CALLDATASIZE SUB DUP2 ADD SWAP1 PUSH2 0x1B0 SWAP2 SWAP1 PUSH2 0x91D JUMP JUMPDEST PUSH2 0x5AA JUMP JUMPDEST STOP JUMPDEST CALLVALUE DUP1 ISZERO PUSH2 0x1C2 JUMPI PUSH0 DUP1 REVERT JUMPDEST POP PUSH2 0x1CB PUSH2 0x619 JUMP JUMPDEST PUSH1 0x40 MLOAD PUSH2 0x1D8 SWAP2 SWAP1 PUSH2 0x96A JUMP JUMPDEST PUSH1 0x40 MLOAD DUP1 SWAP2 SUB SWAP1 RETURN JUMPDEST CALLVALUE DUP1 ISZERO PUSH2 0x1EC JUMPI PUSH0 DUP1 REVERT JUMPDEST POP PUSH2 0x207 PUSH1 0x4 DUP1 CALLDATASIZE SUB DUP2 ADD SWAP1 PUSH2 0x202 SWAP2 SWAP1 PUSH2 0x868 JUMP JUMPDEST PUSH2 0x620 JUMP JUMPDEST STOP JUMPDEST PUSH1 0x3 PUSH0 SWAP1 SLOAD SWAP1 PUSH2 0x100 EXP SWAP1 DIV PUSH1 0xFF AND DUP2 JUMP JUMPDEST PUSH1 0x2 DUP2 DUP2 SLOAD DUP2 LT PUSH2 0x22A JUMPI PUSH0 DUP1 REVERT JUMPDEST SWAP1 PUSH0 MSTORE PUSH1 0x20 PUSH0 KECCAK256 ADD PUSH0 SWAP2 POP SLOAD SWAP1 PUSH2 0x100 EXP SWAP1 DIV PUSH20 0xFFFFFFFFFFFFFFFFFFFFFFFFFFFFFFFFFFFFFFFF AND DUP2 JUMP JUMPDEST PUSH0 DUP2 SWAP1 POP CALLER PUSH1 0x1 PUSH0 DUP4 PUSH20 0xFFFFFFFFFFFFFFFFFFFFFFFFFFFFFFFFFFFFFFFF AND PUSH20 0xFFFFFFFFFFFFFFFFFFFFFFFFFFFFFFFFFFFFFFFF AND DUP2 MSTORE PUSH1 0x20 ADD SWAP1 DUP2 MSTORE PUSH1 0x20 ADD PUSH0 KECCAK256 PUSH1 0x1 PUSH1 0x2 DUP2 LT PUSH2 0x2AB JUMPI PUSH2 0x2AA PUSH2 0x983 JUMP JUMPDEST JUMPDEST ADD PUSH0 PUSH2 0x100 EXP DUP2 SLOAD DUP2 PUSH20 0xFFFFFFFFFFFFFFFFFFFFFFFFFFFFFFFFFFFFFFFF MUL NOT AND SWAP1 DUP4 PUSH20 0xFFFFFFFFFFFFFFFFFFFFFFFFFFFFFFFFFFFFFFFF AND MUL OR SWAP1 SSTORE POP PUSH0 DUP2 PUSH20 0xFFFFFFFFFFFFFFFFFFFFFFFFFFFFFFFFFFFFFFFF AND CALLVALUE PUSH1 0x40 MLOAD PUSH2 0x30E SWAP1 PUSH2 0x9DD JUMP JUMPDEST PUSH0 PUSH1 0x40 MLOAD DUP1 DUP4 SUB DUP2 DUP6 DUP8 GAS CALL SWAP3 POP POP POP RETURNDATASIZE DUP1 PUSH0 DUP2 EQ PUSH2 0x348 JUMPI PUSH1 0x40 MLOAD SWAP2 POP PUSH1 0x1F NOT PUSH1 0x3F RETURNDATASIZE ADD AND DUP3 ADD PUSH1 0x40 MSTORE RETURNDATASIZE DUP3 MSTORE RETURNDATASIZE PUSH0 PUSH1 0x20 DUP5 ADD RETURNDATACOPY PUSH2 0x34D JUMP JUMPDEST PUSH1 0x60 SWAP2 POP JUMPDEST POP POP SWAP1 POP DUP1 PUSH1 0x3 PUSH0 PUSH2 0x100 EXP DUP2 SLOAD DUP2 PUSH1 0xFF MUL NOT AND SWAP1 DUP4 ISZERO ISZERO MUL OR SWAP1 SSTORE POP POP POP POP JUMP JUMPDEST PUSH0 DUP1 CALLER PUSH1 0x40 MLOAD PUSH2 0x37E SWAP1 PUSH2 0x6AD JUMP JUMPDEST PUSH2 0x388 SWAP2 SWAP1 PUSH2 0x825 JUMP JUMPDEST PUSH1 0x40 MLOAD DUP1 SWAP2 SUB SWAP1 PUSH0 CREATE DUP1 ISZERO DUP1 ISZERO PUSH2 0x3A1 JUMPI RETURNDATASIZE PUSH0 DUP1 RETURNDATACOPY RETURNDATASIZE PUSH0 REVERT JUMPDEST POP SWAP1 POP PUSH1 0x40 MLOAD DUP1 PUSH1 0x40 ADD PUSH1 0x40 MSTORE DUP1 CALLER PUSH20 0xFFFFFFFFFFFFFFFFFFFFFFFFFFFFFFFFFFFFFFFF AND PUSH20 0xFFFFFFFFFFFFFFFFFFFFFFFFFFFFFFFFFFFFFFFF AND DUP2 MSTORE PUSH1 0x20 ADD PUSH0 PUSH20 0xFFFFFFFFFFFFFFFFFFFFFFFFFFFFFFFFFFFFFFFF AND PUSH20 0xFFFFFFFFFFFFFFFFFFFFFFFFFFFFFFFFFFFFFFFF AND DUP2 MSTORE POP PUSH1 0x1 PUSH0 DUP4 PUSH20 0xFFFFFFFFFFFFFFFFFFFFFFFFFFFFFFFFFFFFFFFF AND PUSH20 0xFFFFFFFFFFFFFFFFFFFFFFFFFFFFFFFFFFFFFFFF AND DUP2 MSTORE PUSH1 0x20 ADD SWAP1 DUP2 MSTORE PUSH1 0x20 ADD PUSH0 KECCAK256 SWAP1 PUSH1 0x2 PUSH2 0x45C SWAP3 SWAP2 SWAP1 PUSH2 0x6BA JUMP JUMPDEST POP PUSH1 0x2 DUP2 SWAP1 DUP1 PUSH1 0x1 DUP2 SLOAD ADD DUP1 DUP3 SSTORE DUP1 SWAP2 POP POP PUSH1 0x1 SWAP1 SUB SWAP1 PUSH0 MSTORE PUSH1 0x20 PUSH0 KECCAK256 ADD PUSH0 SWAP1 SWAP2 SWAP1 SWAP2 SWAP1 SWAP2 PUSH2 0x100 EXP DUP2 SLOAD DUP2 PUSH20 0xFFFFFFFFFFFFFFFFFFFFFFFFFFFFFFFFFFFFFFFF MUL NOT AND SWAP1 DUP4 PUSH20 0xFFFFFFFFFFFFFFFFFFFFFFFFFFFFFFFFFFFFFFFF AND MUL OR SWAP1 SSTORE POP PUSH0 DUP2 PUSH20 0xFFFFFFFFFFFFFFFFFFFFFFFFFFFFFFFFFFFFFFFF AND CALLVALUE PUSH1 0x40 MLOAD PUSH2 0x4E2 SWAP1 PUSH2 0x9DD JUMP JUMPDEST PUSH0 PUSH1 0x40 MLOAD DUP1 DUP4 SUB DUP2 DUP6 DUP8 GAS CALL SWAP3 POP POP POP RETURNDATASIZE DUP1 PUSH0 DUP2 EQ PUSH2 0x51C JUMPI PUSH1 0x40 MLOAD SWAP2 POP PUSH1 0x1F NOT PUSH1 0x3F RETURNDATASIZE ADD AND DUP3 ADD PUSH1 0x40 MSTORE RETURNDATASIZE DUP3 MSTORE RETURNDATASIZE PUSH0 PUSH1 0x20 DUP5 ADD RETURNDATACOPY PUSH2 0x521 JUMP JUMPDEST PUSH1 0x60 SWAP2 POP JUMPDEST POP POP SWAP1 POP DUP1 PUSH1 0x3 PUSH0 PUSH2 0x100 EXP DUP2 SLOAD DUP2 PUSH1 0xFF MUL NOT AND SWAP1 DUP4 ISZERO ISZERO MUL OR SWAP1 SSTORE POP DUP2 SWAP3 POP POP POP SWAP1 JUMP JUMPDEST PUSH1 0x1 PUSH1 0x20 MSTORE DUP2 PUSH0 MSTORE PUSH1 0x40 PUSH0 KECCAK256 DUP2 PUSH1 0x2 DUP2 LT PUSH2 0x55F JUMPI PUSH0 DUP1 REVERT JUMPDEST ADD PUSH0 SWAP2 POP SWAP2 POP SWAP1 SLOAD SWAP1 PUSH2 0x100 EXP SWAP1 DIV PUSH20 0xFFFFFFFFFFFFFFFFFFFFFFFFFFFFFFFFFFFFFFFF AND DUP2 JUMP JUMPDEST PUSH0 DUP1 SLOAD SWAP1 PUSH2 0x100 EXP SWAP1 DIV PUSH20 0xFFFFFFFFFFFFFFFFFFFFFFFFFFFFFFFFFFFFFFFF AND DUP2 JUMP JUMPDEST PUSH0 DUP3 SWAP1 POP DUP1 PUSH20 0xFFFFFFFFFFFFFFFFFFFFFFFFFFFFFFFFFFFFFFFF AND PUSH4 0x48DB29EA DUP4 PUSH1 0x40 MLOAD DUP3 PUSH4 0xFFFFFFFF AND PUSH1 0xE0 SHL DUP2 MSTORE PUSH1 0x4 ADD PUSH2 0x5E7 SWAP2 SWAP1 PUSH2 0x825 JUMP JUMPDEST PUSH0 PUSH1 0x40 MLOAD DUP1 DUP4 SUB DUP2 PUSH0 DUP8 DUP1 EXTCODESIZE ISZERO DUP1 ISZERO PUSH2 0x5FE JUMPI PUSH0 DUP1 REVERT JUMPDEST POP GAS CALL ISZERO DUP1 ISZERO PUSH2 0x610 JUMPI RETURNDATASIZE PUSH0 DUP1 RETURNDATACOPY RETURNDATASIZE PUSH0 REVERT JUMPDEST POP POP POP POP POP POP POP JUMP JUMPDEST PUSH0 SELFBALANCE SWAP1 POP SWAP1 JUMP JUMPDEST PUSH0 DUP2 PUSH20 0xFFFFFFFFFFFFFFFFFFFFFFFFFFFFFFFFFFFFFFFF AND PUSH8 0xDE0B6B3A7640000 PUSH1 0x40 MLOAD PUSH2 0x64D SWAP1 PUSH2 0x9DD JUMP JUMPDEST PUSH0 PUSH1 0x40 MLOAD DUP1 DUP4 SUB DUP2 DUP6 DUP8 GAS CALL SWAP3 POP POP POP RETURNDATASIZE DUP1 PUSH0 DUP2 EQ PUSH2 0x687 JUMPI PUSH1 0x40 MLOAD SWAP2 POP PUSH1 0x1F NOT PUSH1 0x3F RETURNDATASIZE ADD AND DUP3 ADD PUSH1 0x40 MSTORE RETURNDATASIZE DUP3 MSTORE RETURNDATASIZE PUSH0 PUSH1 0x20 DUP5 ADD RETURNDATACOPY PUSH2 0x68C JUMP JUMPDEST PUSH1 0x60 SWAP2 POP JUMPDEST POP POP SWAP1 POP DUP1 PUSH1 0x3 PUSH0 PUSH2 0x100 EXP DUP2 SLOAD DUP2 PUSH1 0xFF MUL NOT AND SWAP1 DUP4 ISZERO ISZERO MUL OR SWAP1 SSTORE POP POP POP JUMP JUMPDEST PUSH2 0x69C DUP1 PUSH2 0x9F2 DUP4 CODECOPY ADD SWAP1 JUMP JUMPDEST DUP3 PUSH1 0x2 DUP2 ADD SWAP3 DUP3 ISZERO PUSH2 0x725 JUMPI SWAP2 PUSH1 0x20 MUL DUP3 ADD JUMPDEST DUP3 DUP2 GT ISZERO PUSH2 0x724 JUMPI DUP3 MLOAD DUP3 PUSH0 PUSH2 0x100 EXP DUP2 SLOAD DUP2 PUSH20 0xFFFFFFFFFFFFFFFFFFFFFFFFFFFFFFFFFFFFFFFF MUL NOT AND SWAP1 DUP4 PUSH20 0xFFFFFFFFFFFFFFFFFFFFFFFFFFFFFFFFFFFFFFFF AND MUL OR SWAP1 SSTORE POP SWAP2 PUSH1 0x20 ADD SWAP2 SWAP1 PUSH1 0x1 ADD SWAP1 PUSH2 0x6CD JUMP JUMPDEST JUMPDEST POP SWAP1 POP PUSH2 0x732 SWAP2 SWAP1 PUSH2 0x736 JUMP JUMPDEST POP SWAP1 JUMP JUMPDEST JUMPDEST DUP1 DUP3 GT ISZERO PUSH2 0x74D JUMPI PUSH0 DUP2 PUSH0 SWAP1 SSTORE POP PUSH1 0x1 ADD PUSH2 0x737 JUMP JUMPDEST POP SWAP1 JUMP JUMPDEST PUSH0 DUP2 ISZERO ISZERO SWAP1 POP SWAP2 SWAP1 POP JUMP JUMPDEST PUSH2 0x765 DUP2 PUSH2 0x751 JUMP JUMPDEST DUP3 MSTORE POP POP JUMP JUMPDEST PUSH0 PUSH1 0x20 DUP3 ADD SWAP1 POP PUSH2 0x77E PUSH0 DUP4 ADD DUP5 PUSH2 0x75C JUMP JUMPDEST SWAP3 SWAP2 POP POP JUMP JUMPDEST PUSH0 DUP1 REVERT JUMPDEST PUSH0 DUP2 SWAP1 POP SWAP2 SWAP1 POP JUMP JUMPDEST PUSH2 0x79A DUP2 PUSH2 0x788 JUMP JUMPDEST DUP2 EQ PUSH2 0x7A4 JUMPI PUSH0 DUP1 REVERT JUMPDEST POP JUMP JUMPDEST PUSH0 DUP2 CALLDATALOAD SWAP1 POP PUSH2 0x7B5 DUP2 PUSH2 0x791 JUMP JUMPDEST SWAP3 SWAP2 POP POP JUMP JUMPDEST PUSH0 PUSH1 0x20 DUP3 DUP5 SUB SLT ISZERO PUSH2 0x7D0 JUMPI PUSH2 0x7CF PUSH2 0x784 JUMP JUMPDEST JUMPDEST PUSH0 PUSH2 0x7DD DUP5 DUP3 DUP6 ADD PUSH2 0x7A7 JUMP JUMPDEST SWAP2 POP POP SWAP3 SWAP2 POP POP JUMP JUMPDEST PUSH0 PUSH20 0xFFFFFFFFFFFFFFFFFFFFFFFFFFFFFFFFFFFFFFFF DUP3 AND SWAP1 POP SWAP2 SWAP1 POP JUMP JUMPDEST PUSH0 PUSH2 0x80F DUP3 PUSH2 0x7E6 JUMP JUMPDEST SWAP1 POP SWAP2 SWAP1 POP JUMP JUMPDEST PUSH2 0x81F DUP2 PUSH2 0x805 JUMP JUMPDEST DUP3 MSTORE POP POP JUMP JUMPDEST PUSH0 PUSH1 0x20 DUP3 ADD SWAP1 POP PUSH2 0x838 PUSH0 DUP4 ADD DUP5 PUSH2 0x816 JUMP JUMPDEST SWAP3 SWAP2 POP POP JUMP JUMPDEST PUSH2 0x847 DUP2 PUSH2 0x805 JUMP JUMPDEST DUP2 EQ PUSH2 0x851 JUMPI PUSH0 DUP1 REVERT JUMPDEST POP JUMP JUMPDEST PUSH0 DUP2 CALLDATALOAD SWAP1 POP PUSH2 0x862 DUP2 PUSH2 0x83E JUMP JUMPDEST SWAP3 SWAP2 POP POP JUMP JUMPDEST PUSH0 PUSH1 0x20 DUP3 DUP5 SUB SLT ISZERO PUSH2 0x87D JUMPI PUSH2 0x87C PUSH2 0x784 JUMP JUMPDEST JUMPDEST PUSH0 PUSH2 0x88A DUP5 DUP3 DUP6 ADD PUSH2 0x854 JUMP JUMPDEST SWAP2 POP POP SWAP3 SWAP2 POP POP JUMP JUMPDEST PUSH0 PUSH2 0x89D DUP3 PUSH2 0x7E6 JUMP JUMPDEST SWAP1 POP SWAP2 SWAP1 POP JUMP JUMPDEST PUSH0 PUSH2 0x8AE DUP3 PUSH2 0x893 JUMP JUMPDEST SWAP1 POP SWAP2 SWAP1 POP JUMP JUMPDEST PUSH2 0x8BE DUP2 PUSH2 0x8A4 JUMP JUMPDEST DUP2 EQ PUSH2 0x8C8 JUMPI PUSH0 DUP1 REVERT JUMPDEST POP JUMP JUMPDEST PUSH0 DUP2 CALLDATALOAD SWAP1 POP PUSH2 0x8D9 DUP2 PUSH2 0x8B5 JUMP JUMPDEST SWAP3 SWAP2 POP POP JUMP JUMPDEST PUSH0 DUP1 PUSH1 0x40 DUP4 DUP6 SUB SLT ISZERO PUSH2 0x8F5 JUMPI PUSH2 0x8F4 PUSH2 0x784 JUMP JUMPDEST JUMPDEST PUSH0 PUSH2 0x902 DUP6 DUP3 DUP7 ADD PUSH2 0x8CB JUMP JUMPDEST SWAP3 POP POP PUSH1 0x20 PUSH2 0x913 DUP6 DUP3 DUP7 ADD PUSH2 0x7A7 JUMP JUMPDEST SWAP2 POP POP SWAP3 POP SWAP3 SWAP1 POP JUMP JUMPDEST PUSH0 DUP1 PUSH1 0x40 DUP4 DUP6 SUB SLT ISZERO PUSH2 0x933 JUMPI PUSH2 0x932 PUSH2 0x784 JUMP JUMPDEST JUMPDEST PUSH0 PUSH2 0x940 DUP6 DUP3 DUP7 ADD PUSH2 0x854 JUMP JUMPDEST SWAP3 POP POP PUSH1 0x20 PUSH2 0x951 DUP6 DUP3 DUP7 ADD PUSH2 0x854 JUMP JUMPDEST SWAP2 POP POP SWAP3 POP SWAP3 SWAP1 POP JUMP JUMPDEST PUSH2 0x964 DUP2 PUSH2 0x788 JUMP JUMPDEST DUP3 MSTORE POP POP JUMP JUMPDEST PUSH0 PUSH1 0x20 DUP3 ADD SWAP1 POP PUSH2 0x97D PUSH0 DUP4 ADD DUP5 PUSH2 0x95B JUMP JUMPDEST SWAP3 SWAP2 POP POP JUMP JUMPDEST PUSH32 0x4E487B7100000000000000000000000000000000000000000000000000000000 PUSH0 MSTORE PUSH1 0x32 PUSH1 0x4 MSTORE PUSH1 0x24 PUSH0 REVERT JUMPDEST PUSH0 DUP2 SWAP1 POP SWAP3 SWAP2 POP POP JUMP JUMPDEST POP JUMP JUMPDEST PUSH0 PUSH2 0x9C8 PUSH0 DUP4 PUSH2 0x9B0 JUMP JUMPDEST SWAP2 POP PUSH2 0x9D3 DUP3 PUSH2 0x9BA JUMP JUMPDEST PUSH0 DUP3 ADD SWAP1 POP SWAP2 SWAP1 POP JUMP JUMPDEST PUSH0 PUSH2 0x9E7 DUP3 PUSH2 0x9BD JUMP JUMPDEST SWAP2 POP DUP2 SWAP1 POP SWAP2 SWAP1 POP JUMP INVALID PUSH1 0x80 PUSH1 0x40 MSTORE CALLVALUE DUP1 ISZERO PUSH2 0xF JUMPI PUSH0 DUP1 REVERT JUMPDEST POP PUSH1 0x40 MLOAD PUSH2 0x69C CODESIZE SUB DUP1 PUSH2 0x69C DUP4 CODECOPY DUP2 DUP2 ADD PUSH1 0x40 MSTORE DUP2 ADD SWAP1 PUSH2 0x31 SWAP2 SWAP1 PUSH2 0x114 JUMP JUMPDEST DUP1 PUSH1 0x1 PUSH0 PUSH2 0x100 EXP DUP2 SLOAD DUP2 PUSH20 0xFFFFFFFFFFFFFFFFFFFFFFFFFFFFFFFFFFFFFFFF MUL NOT AND SWAP1 DUP4 PUSH20 0xFFFFFFFFFFFFFFFFFFFFFFFFFFFFFFFFFFFFFFFF AND MUL OR SWAP1 SSTORE POP CALLER PUSH0 DUP1 PUSH2 0x100 EXP DUP2 SLOAD DUP2 PUSH20 0xFFFFFFFFFFFFFFFFFFFFFFFFFFFFFFFFFFFFFFFF MUL NOT AND SWAP1 DUP4 PUSH20 0xFFFFFFFFFFFFFFFFFFFFFFFFFFFFFFFFFFFFFFFF AND MUL OR SWAP1 SSTORE POP POP PUSH2 0x13F JUMP JUMPDEST PUSH0 DUP1 REVERT JUMPDEST PUSH0 PUSH20 0xFFFFFFFFFFFFFFFFFFFFFFFFFFFFFFFFFFFFFFFF DUP3 AND SWAP1 POP SWAP2 SWAP1 POP JUMP JUMPDEST PUSH0 PUSH2 0xE3 DUP3 PUSH2 0xBA JUMP JUMPDEST SWAP1 POP SWAP2 SWAP1 POP JUMP JUMPDEST PUSH2 0xF3 DUP2 PUSH2 0xD9 JUMP JUMPDEST DUP2 EQ PUSH2 0xFD JUMPI PUSH0 DUP1 REVERT JUMPDEST POP JUMP JUMPDEST PUSH0 DUP2 MLOAD SWAP1 POP PUSH2 0x10E DUP2 PUSH2 0xEA JUMP JUMPDEST SWAP3 SWAP2 POP POP JUMP JUMPDEST PUSH0 PUSH1 0x20 DUP3 DUP5 SUB SLT ISZERO PUSH2 0x129 JUMPI PUSH2 0x128 PUSH2 0xB6 JUMP JUMPDEST JUMPDEST PUSH0 PUSH2 0x136 DUP5 DUP3 DUP6 ADD PUSH2 0x100 JUMP JUMPDEST SWAP2 POP POP SWAP3 SWAP2 POP POP JUMP JUMPDEST PUSH2 0x550 DUP1 PUSH2 0x14C PUSH0 CODECOPY PUSH0 RETURN INVALID PUSH1 0x80 PUSH1 0x40 MSTORE PUSH1 0x4 CALLDATASIZE LT PUSH2 0x73 JUMPI PUSH0 CALLDATALOAD PUSH1 0xE0 SHR DUP1 PUSH4 0x8DA5CB5B GT PUSH2 0x4D JUMPI DUP1 PUSH4 0x8DA5CB5B EQ PUSH2 0x133 JUMPI DUP1 PUSH4 0x9A04F704 EQ PUSH2 0x15D JUMPI DUP1 PUSH4 0xC1CFB99A EQ PUSH2 0x187 JUMPI DUP1 PUSH4 0xF851A440 EQ PUSH2 0x1B1 JUMPI PUSH2 0xB3 JUMP JUMPDEST DUP1 PUSH4 0x16FC496C EQ PUSH2 0xB7 JUMPI DUP1 PUSH4 0x48DB29EA EQ PUSH2 0xE1 JUMPI DUP1 PUSH4 0x54C7C612 EQ PUSH2 0x109 JUMPI PUSH2 0xB3 JUMP JUMPDEST CALLDATASIZE PUSH2 0xB3 JUMPI PUSH32 0x88A5966D370B9919B20F3E2C13FF65706F196A4E32CC2C12BF57088F88525874 CALLER CALLVALUE PUSH1 0x40 MLOAD PUSH2 0xA9 SWAP3 SWAP2 SWAP1 PUSH2 0x3CA JUMP JUMPDEST PUSH1 0x40 MLOAD DUP1 SWAP2 SUB SWAP1 LOG1 STOP JUMPDEST PUSH0 DUP1 REVERT JUMPDEST CALLVALUE DUP1 ISZERO PUSH2 0xC2 JUMPI PUSH0 DUP1 REVERT JUMPDEST POP PUSH2 0xCB PUSH2 0x1DB JUMP JUMPDEST PUSH1 0x40 MLOAD PUSH2 0xD8 SWAP2 SWAP1 PUSH2 0x3F1 JUMP JUMPDEST PUSH1 0x40 MLOAD DUP1 SWAP2 SUB SWAP1 RETURN JUMPDEST CALLVALUE DUP1 ISZERO PUSH2 0xEC JUMPI PUSH0 DUP1 REVERT JUMPDEST POP PUSH2 0x107 PUSH1 0x4 DUP1 CALLDATASIZE SUB DUP2 ADD SWAP1 PUSH2 0x102 SWAP2 SWAP1 PUSH2 0x438 JUMP JUMPDEST PUSH2 0x203 JUMP JUMPDEST STOP JUMPDEST CALLVALUE DUP1 ISZERO PUSH2 0x114 JUMPI PUSH0 DUP1 REVERT JUMPDEST POP PUSH2 0x11D PUSH2 0x2D7 JUMP JUMPDEST PUSH1 0x40 MLOAD PUSH2 0x12A SWAP2 SWAP1 PUSH2 0x3F1 JUMP JUMPDEST PUSH1 0x40 MLOAD DUP1 SWAP2 SUB SWAP1 RETURN JUMPDEST CALLVALUE DUP1 ISZERO PUSH2 0x13E JUMPI PUSH0 DUP1 REVERT JUMPDEST POP PUSH2 0x147 PUSH2 0x2FF JUMP JUMPDEST PUSH1 0x40 MLOAD PUSH2 0x154 SWAP2 SWAP1 PUSH2 0x3F1 JUMP JUMPDEST PUSH1 0x40 MLOAD DUP1 SWAP2 SUB SWAP1 RETURN JUMPDEST CALLVALUE DUP1 ISZERO PUSH2 0x168 JUMPI PUSH0 DUP1 REVERT JUMPDEST POP PUSH2 0x171 PUSH2 0x322 JUMP JUMPDEST PUSH1 0x40 MLOAD PUSH2 0x17E SWAP2 SWAP1 PUSH2 0x3F1 JUMP JUMPDEST PUSH1 0x40 MLOAD DUP1 SWAP2 SUB SWAP1 RETURN JUMPDEST CALLVALUE DUP1 ISZERO PUSH2 0x192 JUMPI PUSH0 DUP1 REVERT JUMPDEST POP PUSH2 0x19B PUSH2 0x347 JUMP JUMPDEST PUSH1 0x40 MLOAD PUSH2 0x1A8 SWAP2 SWAP1 PUSH2 0x463 JUMP JUMPDEST PUSH1 0x40 MLOAD DUP1 SWAP2 SUB SWAP1 RETURN JUMPDEST CALLVALUE DUP1 ISZERO PUSH2 0x1BC JUMPI PUSH0 DUP1 REVERT JUMPDEST POP PUSH2 0x1C5 PUSH2 0x34E JUMP JUMPDEST PUSH1 0x40 MLOAD PUSH2 0x1D2 SWAP2 SWAP1 PUSH2 0x3F1 JUMP JUMPDEST PUSH1 0x40 MLOAD DUP1 SWAP2 SUB SWAP1 RETURN JUMPDEST PUSH0 PUSH1 0x2 PUSH0 SWAP1 SLOAD SWAP1 PUSH2 0x100 EXP SWAP1 DIV PUSH20 0xFFFFFFFFFFFFFFFFFFFFFFFFFFFFFFFFFFFFFFFF AND SWAP1 POP SWAP1 JUMP JUMPDEST PUSH0 DUP1 SLOAD SWAP1 PUSH2 0x100 EXP SWAP1 DIV PUSH20 0xFFFFFFFFFFFFFFFFFFFFFFFFFFFFFFFFFFFFFFFF AND PUSH20 0xFFFFFFFFFFFFFFFFFFFFFFFFFFFFFFFFFFFFFFFF AND CALLER PUSH20 0xFFFFFFFFFFFFFFFFFFFFFFFFFFFFFFFFFFFFFFFF AND EQ PUSH2 0x290 JUMPI PUSH1 0x40 MLOAD PUSH32 0x8C379A000000000000000000000000000000000000000000000000000000000 DUP2 MSTORE PUSH1 0x4 ADD PUSH2 0x287 SWAP1 PUSH2 0x4FC JUMP JUMPDEST PUSH1 0x40 MLOAD DUP1 SWAP2 SUB SWAP1 REVERT JUMPDEST DUP1 PUSH20 0xFFFFFFFFFFFFFFFFFFFFFFFFFFFFFFFFFFFFFFFF AND PUSH2 0x8FC SELFBALANCE SWAP1 DUP2 ISZERO MUL SWAP1 PUSH1 0x40 MLOAD PUSH0 PUSH1 0x40 MLOAD DUP1 DUP4 SUB DUP2 DUP6 DUP9 DUP9 CALL SWAP4 POP POP POP POP ISZERO DUP1 ISZERO PUSH2 0x2D3 JUMPI RETURNDATASIZE PUSH0 DUP1 RETURNDATACOPY RETURNDATASIZE PUSH0 REVERT JUMPDEST POP POP JUMP JUMPDEST PUSH0 PUSH1 0x1 PUSH0 SWAP1 SLOAD SWAP1 PUSH2 0x100 EXP SWAP1 DIV PUSH20 0xFFFFFFFFFFFFFFFFFFFFFFFFFFFFFFFFFFFFFFFF AND SWAP1 POP SWAP1 JUMP JUMPDEST PUSH0 DUP1 SLOAD SWAP1 PUSH2 0x100 EXP SWAP1 DIV PUSH20 0xFFFFFFFFFFFFFFFFFFFFFFFFFFFFFFFFFFFFFFFF AND DUP2 JUMP JUMPDEST PUSH1 0x2 PUSH0 SWAP1 SLOAD SWAP1 PUSH2 0x100 EXP SWAP1 DIV PUSH20 0xFFFFFFFFFFFFFFFFFFFFFFFFFFFFFFFFFFFFFFFF AND DUP2 JUMP JUMPDEST PUSH0 SELFBALANCE SWAP1 POP SWAP1 JUMP JUMPDEST PUSH1 0x1 PUSH0 SWAP1 SLOAD SWAP1 PUSH2 0x100 EXP SWAP1 DIV PUSH20 0xFFFFFFFFFFFFFFFFFFFFFFFFFFFFFFFFFFFFFFFF AND DUP2 JUMP JUMPDEST PUSH0 PUSH20 0xFFFFFFFFFFFFFFFFFFFFFFFFFFFFFFFFFFFFFFFF DUP3 AND SWAP1 POP SWAP2 SWAP1 POP JUMP JUMPDEST PUSH0 PUSH2 0x39C DUP3 PUSH2 0x373 JUMP JUMPDEST SWAP1 POP SWAP2 SWAP1 POP JUMP JUMPDEST PUSH2 0x3AC DUP2 PUSH2 0x392 JUMP JUMPDEST DUP3 MSTORE POP POP JUMP JUMPDEST PUSH0 DUP2 SWAP1 POP SWAP2 SWAP1 POP JUMP JUMPDEST PUSH2 0x3C4 DUP2 PUSH2 0x3B2 JUMP JUMPDEST DUP3 MSTORE POP POP JUMP JUMPDEST PUSH0 PUSH1 0x40 DUP3 ADD SWAP1 POP PUSH2 0x3DD PUSH0 DUP4 ADD DUP6 PUSH2 0x3A3 JUMP JUMPDEST PUSH2 0x3EA PUSH1 0x20 DUP4 ADD DUP5 PUSH2 0x3BB JUMP JUMPDEST SWAP4 SWAP3 POP POP POP JUMP JUMPDEST PUSH0 PUSH1 0x20 DUP3 ADD SWAP1 POP PUSH2 0x404 PUSH0 DUP4 ADD DUP5 PUSH2 0x3A3 JUMP JUMPDEST SWAP3 SWAP2 POP POP JUMP JUMPDEST PUSH0 DUP1 REVERT JUMPDEST PUSH2 0x417 DUP2 PUSH2 0x392 JUMP JUMPDEST DUP2 EQ PUSH2 0x421 JUMPI PUSH0 DUP1 REVERT JUMPDEST POP JUMP JUMPDEST PUSH0 DUP2 CALLDATALOAD SWAP1 POP PUSH2 0x432 DUP2 PUSH2 0x40E JUMP JUMPDEST SWAP3 SWAP2 POP POP JUMP JUMPDEST PUSH0 PUSH1 0x20 DUP3 DUP5 SUB SLT ISZERO PUSH2 0x44D JUMPI PUSH2 0x44C PUSH2 0x40A JUMP JUMPDEST JUMPDEST PUSH0 PUSH2 0x45A DUP5 DUP3 DUP6 ADD PUSH2 0x424 JUMP JUMPDEST SWAP2 POP POP SWAP3 SWAP2 POP POP JUMP JUMPDEST PUSH0 PUSH1 0x20 DUP3 ADD SWAP1 POP PUSH2 0x476 PUSH0 DUP4 ADD DUP5 PUSH2 0x3BB JUMP JUMPDEST SWAP3 SWAP2 POP POP JUMP JUMPDEST PUSH0 DUP3 DUP3 MSTORE PUSH1 0x20 DUP3 ADD SWAP1 POP SWAP3 SWAP2 POP POP JUMP JUMPDEST PUSH32 0x4F6E6C79206F776E65722063616E2063616C6C20746869732066756E6374696F PUSH0 DUP3 ADD MSTORE PUSH32 0x6E2E000000000000000000000000000000000000000000000000000000000000 PUSH1 0x20 DUP3 ADD MSTORE POP JUMP JUMPDEST PUSH0 PUSH2 0x4E6 PUSH1 0x22 DUP4 PUSH2 0x47C JUMP JUMPDEST SWAP2 POP PUSH2 0x4F1 DUP3 PUSH2 0x48C JUMP JUMPDEST PUSH1 0x40 DUP3 ADD SWAP1 POP SWAP2 SWAP1 POP JUMP JUMPDEST PUSH0 PUSH1 0x20 DUP3 ADD SWAP1 POP DUP2 DUP2 SUB PUSH0 DUP4 ADD MSTORE PUSH2 0x513 DUP2 PUSH2 0x4DA JUMP JUMPDEST SWAP1 POP SWAP2 SWAP1 POP JUMP INVALID LOG2 PUSH5 0x6970667358 0x22 SLT KECCAK256 PREVRANDAO OR SWAP10 0xA5 PUSH26 0xD5C4506F7DD9391F0F42281F25A79DF6EB597A26DEC4B7E74F49 0xC PUSH5 0x736F6C6343 STOP ADDMOD AND STOP CALLER LOG2 PUSH5 0x6970667358 0x22 SLT KECCAK256 0xD2 PUSH21 0x83B084A5EC39A0DA78B4213EBCA8C3DCB31400A523 LOG4 PUSH28 0x1B62E07290FFEB64736F6C6343000816003300000000000000000000 "
				},
				"gasEstimates": {
					"creation": {
						"codeDepositCost": "858200",
						"executionCost": "25135",
						"totalCost": "883335"
					},
					"external": {
						"create_game()": "infinite",
						"deposit(address)": "infinite",
						"end_game(address,address)": "infinite",
						"get_balance()": "400",
						"join_game(address)": "infinite",
						"owner()": "2527",
						"room_(uint256)": "4967",
						"rooms(address,uint256)": "infinite",
						"success()": "2467"
					}
				},
				"methodIdentifiers": {
					"create_game()": "42909a9e",
					"deposit(address)": "f340fa01",
					"end_game(address,address)": "aac7a814",
					"get_balance()": "c1cfb99a",
					"join_game(address)": "1d84d05c",
					"owner()": "8da5cb5b",
					"room_(uint256)": "1989d3dc",
					"rooms(address,uint256)": "868a1119",
					"success()": "0b93381b"
				}
			},
			"storageLayout": {
				"storage": [
					{
						"astId": 4,
						"contract": "contracts/home.sol:Home",
						"label": "owner",
						"offset": 0,
						"slot": "0",
						"type": "t_address"
					},
					{
						"astId": 11,
						"contract": "contracts/home.sol:Home",
						"label": "rooms",
						"offset": 0,
						"slot": "1",
						"type": "t_mapping(t_contract(Room)304,t_array(t_address)2_storage)"
					},
					{
						"astId": 14,
						"contract": "contracts/home.sol:Home",
						"label": "room_",
						"offset": 0,
						"slot": "2",
						"type": "t_array(t_address)dyn_storage"
					},
					{
						"astId": 16,
						"contract": "contracts/home.sol:Home",
						"label": "success",
						"offset": 0,
						"slot": "3",
						"type": "t_bool"
					}
				],
				"types": {
					"t_address": {
						"encoding": "inplace",
						"label": "address",
						"numberOfBytes": "20"
					},
					"t_array(t_address)2_storage": {
						"base": "t_address",
						"encoding": "inplace",
						"label": "address[2]",
						"numberOfBytes": "64"
					},
					"t_array(t_address)dyn_storage": {
						"base": "t_address",
						"encoding": "dynamic_array",
						"label": "address[]",
						"numberOfBytes": "32"
					},
					"t_bool": {
						"encoding": "inplace",
						"label": "bool",
						"numberOfBytes": "1"
					},
					"t_contract(Room)304": {
						"encoding": "inplace",
						"label": "contract Room",
						"numberOfBytes": "20"
					},
					"t_mapping(t_contract(Room)304,t_array(t_address)2_storage)": {
						"encoding": "mapping",
						"key": "t_contract(Room)304",
						"label": "mapping(contract Room => address[2])",
						"numberOfBytes": "32",
						"value": "t_array(t_address)2_storage"
					}
				}
			},
			"userdoc": {
				"kind": "user",
				"methods": {},
				"version": 1
			}
		}
	}
}